:10000000FCFF0320FD270000B5270000B5270000F6
:10001000B5270000B5270000B5270000B527000070
:10002000B5270000B5270000B5270000B527000060
:10003000B5270000B5270000B5270000B527000050
:10004000B5270000B5270000B5270000B527000040
:10005000B5270000B5270000B5270000B527000030
:10006000B5270000B5270000B5270000B527000020
:10007000B5270000B5270000B5270000B527000010
:10008000B5270000B5270000B5270000B527000000
:10009000B5270000B5270000B5270000B5270000F0
:1000A000B5270000B5270000B5270000B5270000E0
:1000B000B5270000B5270000B5270000B5270000D0
:1000C000B5270000B5270000B5270000B5270000C0
:1000D000B5270000B5270000B5270000B5270000B0
:1000E000B5270000B5270000B5270000B5270000A0
:1000F000B5270000B5270000B5270000B527000090
:10010000B5270000B5270000B5270000B52700007F
:10011000B5270000B5270000B5270000B52700006F
:10012000B5270000B5270000B5270000B52700005F
:10013000B5270000B5270000B5270000B52700004F
:10014000B5270000B5270000B5270000B52700003F
:10015000B5270000B5270000B5270000B52700002F
:10016000B5270000B5270000B5270000B52700001F
:10017000B5270000B5270000B5270000B52700000F
:10018000B5270000B5270000B5270000B5270000FF
:10019000B5270000B5270000B5270000B5270000EF
:1001A000B5270000B5270000B5270000B5270000DF
:1001B000B5270000B5270000B5270000B5270000CF
:1001C000B5270000B5270000B5270000B5270000BF
:1001D000B5270000B5270000B5270000B5270000AF
:1001E000B5270000B5270000B5270000B52700009F
:1001F000B5270000B5270000B5270000B52700008F
:08020000B5270000B52700003E
:1027FC0000F010F8FFF7DCFF00F014FBFFF7EEFF22
:10280C0000F0C2FAFFF7A2FFFFF778FFFFF738FFDF
:04281C00FCE7FEE7F0
:1026240081B01CF8019B0BF8019BBBEB0A0FF8D19E
:0426340001B070473A
:1026500081B04FF000094FF0000CBDEB0A0F04DC15
:10266000BDEB0B0F01DBD446EA464BF8049BBBEBFA
:102670000A0FFAD1BCEB0A0F05DDE246D9F800B02B
:0A2680000BF1040BF1E701B0704705
:1027580081B0CDF800E0002202210020FFF72AFE18
:10276800002201210020FFF725FE01220721002079
:10277800FFF720FE0C4801460020FFF73DFE42F21D
:1027880080512020FFF750FE40F6FE07C0F23D07BB
:102798007F1EFDD100BF00BF00BF00BF00BFDDF836
:0C27A80000E001B0704700BFDC10000032
:1023BC0081B0CDF800E05FFA81FA5FFA82FB0FE0A2
:1023CC005FFA8BF15FFA8AF0FFF7F2FE0DE05FFA2D
:1023DC008BF15FFA8AF0FFF775FD06E0012004E04F
:1023EC000028EDD00128F2D0F8E7DDF800E001B0CC
:0223FC00704728
:1021BC0081B0CDF800E091E0012904D110215A48FA
:1021CC00FFF710FC03E010215748FFF721FCA5E0B6
:1021DC00012904D101215448FFF704FC03E001213B
:1021EC005148FFF715FC99E0012904D101214F4812
:1021FC00FFF7F8FB03E001214C48FFF709FC8DE0E9
:10220C00012904D104214A48FFF7ECFB03E0042127
:10221C004748FFF7FDFB81E0012904D11021444818
:10222C00FFF7E0FB03E010214148FFF7F1FB75E0FD
:10223C00012904D120213E48FFF7D4FB03E02021E3
:10224C003B48FFF7E5FB69E0012904D1012139483E
:10225C00FFF7C8FB03E001213648FFF7D9FB5DE02F
:10226C00012904D110213448FFF7BCFB03E01021F5
:10227C003148FFF7CDFB51E0012904D140212F4813
:10228C00FFF7B0FB03E040212C48FFF7C1FB45E012
:10229C00012904D180212948FFF7A4FB03E0802108
:1022AC002648FFF7B5FB39E0012904D104211F486A
:1022BC00FFF798FB03E004211C48FFF7A9FB2DE076
:1022CC00012904D108211948FFF78CFB03E00821F0
:1022DC001648FFF79DFB21E0012020E000283FF489
:1022EC006BAF01283FF474AF02283FF47DAF032895
:1022FC003FF486AF04283FF48FAF05283FF498AF26
:10230C0006283FF4A1AF0728AAD00828B4D0092882
:10231C00BED00A28C8D00B28D2D0DDE70020DDF8CB
:10232C0000E001B0704700BF00C0054000900540C0
:10233C000080054000B0054000D0054000A00540DD
:1019F00081B0CDF800E0002440F240031BB240F279
:101A0000001212B21A4393B2002210B4FFF77CF80E
:0A1A100001B0DDF800E001B07047FE
:100B080082B0CDF800E05FFA81F8D5B29FB29DF8C7
:100B18000830F54C00EA0404A1462046FFF784FC9F
:100B2800F24CA54208D109F580666FEA0805EDB2D6
:100B380034682C40346008E0ED4CA54205D109F535
:100B480080652C6844EA08042C6040F2010407EA36
:100B58000404A4B234B109F5A2652C6844EA080477
:100B68002C6007E009F5A2666FEA0805EDB2346863
:100B78002C40346040F2020407EA0404A4B234B101
:100B880009F214552C6844EA08042C6007E009F2BD
:100B980014566FEA0805EDB234682C40346040F210
:100BA800080407EA0404A4B234B109F20C552C680D
:100BB80044EA08042C6007E009F20C566FEA0805BD
:100BC800EDB234682C40346040F2100407EA0404A3
:100BD800A4B234B109F5A0652C6844EA08042C6075
:100BE80007E009F5A0666FEA0805EDB234682C4005
:100BF800346040F2200407EA0404A4B234B109F2D4
:100C080004552C6844EA08042C6007E009F20456ED
:100C18006FEA0805EDB234682C40346040F24004B5
:100C280007EA0404A4B234B109F5A1652C6844EAC2
:100C380008042C6007E009F5A1666FEA0805EDB223
:100C480034682C40346041F2000407EA0404A4B27A
:100C5800012C13D042F2000407EA0404A4B2012CC8
:100C68000CD044F2000407EA0404A4B2012C05D015
:100C7800DEB24B46B8B25FFA88F53CE000200026A9
:100C8800DAB2BBB207465FFA88F04946082E13D29B
:100C980020FA06F4E4B204F00104E4B24CB17500A1
:100CA8002DB2032424B2AC4024B247EA04052F46EF
:100CB800FFE7761CF6B2E9E701F6C476FD4334682F
:100CC8002C40346001F23C56C543EDB234682C40E8
:100CD800346001F5A166C543EDB234682C40346038
:100CE80001F20456C543EDB234682C403460C5B2F5
:100CF80098B20B46D6B2002141F2000400EA04047F
:100D0800A4B23CB300220F46E9B2082A13D221FA52
:100D180002F4E4B204F00104E4B24CB155002DB27F
:100D2800012424B2AC4024B247EA04052F46FFE769
:100D3800521CD2B2E9E703F6C4752C683C432C6018
:100D480003F5A1652C680C432C603D461F4683B211
:100D5800C8B203E01F4683B2E8B20D4642F200046F
:100D680003EA0404A4B26CB30022A8463946082A50
:100D780013D220FA02F4E4B204F00104E4B24CB154
:100D880055002DB2032424B2AC4024B248EA04052D
:100D9800A846FFE7521CD2B2E9E701F6C4752C68F1
:100DA80044EA08042C6001F23C552C6804432C608A
:100DB80001F5A1652C6804432C60F7B20E46C2B257
:100DC80098B205E00197C2B298B2F7B2A846019E60
:100DD80044F2000400EA0404A4B284B30023D1B2AC
:100DE800082B14D221FA03F4E4B204F00104E4B2AB
:100DF80054B15D002DB2032424B2AC4024B248EAB9
:100E0800040422469046FFE75B1CDBB2E8E706F6DF
:100E1800C4752C6844EA08042C6006F23C552C681A
:100E28000C432C6006F5A1652C680C432C6006F277
:100E380004552C680C432C60FBB2324602E0D1B258
:100E48003246FBB240F2800400EA0404A4B274B152
:100E580040F2400400EA0404A4B22CB102F5A365F0
:100E68002C680C432C6001E00120FAE006E002F552
:100E7800A366CD43EDB234682C40346040F20014D0
:100E880000EA0404A4B22CB102F21C552C680C43ED
:100E98002C6006E002F21C56CD43EDB234682C40BB
:100EA800346040F2002400EA0404A4B2002C3AD0D2
:100EB800104CA24240F2000500D001250E4CA2427F
:100EC80040F2000400D0012425400C4CA24240F21C
:100ED800000400D001242540094CA24240F200043D
:100EE80000D0012425400DE000F0FFFF00000000C5
:100EF8000100000000C0054000B00540009005401A
:100F080000100640594CA24240F2000400D00124CF
:100F180005EA04040CB10120A3E002F5A5652C68DC
:100F28000C432C602AE0524CA24240F2000500D14A
:100F38000125504CA24240F2000400D1012425436F
:100F48004D4CA24240F2000400D1012425434B4CF1
:100F5800A24240F2000400D101242543434CA2429E
:100F680040F2000400D1012445EA040434B102F53A
:100F7800A566CD43EDB234682C40346040F60004D9
:100F880000EA0404A4B22CB102F5A6652C680C434F
:100F98002C6006E002F5A666CD43EDB234682C401D
:100FA800346040F2004400EA0404A4B22CB102F513
:100FB80084652C680C432C6006E002F58466CD43FA
:100FC800EDB234682C4034600BB9002049E00F2B97
:100FD80001D9012045E0002700208DF80430C3B274
:100FE80010469DF80420082B12D221FA03F4E4B22B
:100FF80004F00104E4B244B19D002DB24FF00F0497
:10100800AC4047EA04052F46FFE75B1CDBB2EAE782
:1010180000F22C56FD4334682C403460002600232F
:101028008DF80430CBB29DF80410082913D223FAA6
:1010380001F4E4B204F00104E4B24CB1D5B28C007E
:1010480024B205FA04F446EA040425462E46FFE7CE
:10105800491CC9B2E9E700F22C552C6834432C60CE
:101068000020DDF800E002B0704700BF00500640E5
:1010780000C0054000B00540009005400010064043
:1004300081B0664900EA010108467DE06449096827
:1004400041F0010262490A60BEE06149096841F079
:1004500002025F490A60B7E05D49096841F00402A1
:100460005B490A60B0E05A49096841F008025849FE
:100470000A60A9E05649096841F0100254490A602F
:10048000A2E05349096841F0200251490A609BE00B
:100490004F49096841F040024D490A6094E04C49D7
:1004A000096841F080024A490A608DE048490968BC
:1004B00041F4807246490A6086E04549096841F482
:1004C000007243490A607FE04149096841F4806253
:1004D0003F490A6078E03E49096841F400623C49BE
:1004E0000A6071E03A49096841F4805238490A606B
:1004F0006AE03749096841F4005235490A6063E00F
:100500003349096841F4804231490A605CE030496E
:10051000096841F400422E490A6055E02C490968F7
:1005200041F480322A490A604EE02949096841F4C1
:10053000003227490A6047E0264988423FF47EAFEF
:10054000254988423FF481AF244988423FF484AF73
:10055000234988423FF487AF224988423FF48AAF5B
:10056000214988423FF48DAF204988423FF490AF43
:100570001F4988423FF493AF1E4988423FF496AF2B
:100580001D4988423FF499AF1C4988423FF49CAF13
:100590001B4988423FF49FAF1A4988423FF4A2AFFB
:1005A000194988423FF4A5AF184988423FF4A8AFE3
:1005B000174988423FF4ABAF164988423FF4AEAFCB
:1005C000154988423FF4B1AF01B0704700F0FFFF1A
:1005D00008E60F40008005400090054000A005405F
:1005E00000B0054000C0054000D0054000E00540D7
:1005F00000F00540000006400010064000200640C4
:1006000000300640004006400050064000600640B2
:0C0610000070064000800640009006408C
:101A1C0081B0CDF800E0002440F240031BB240F24C
:101A2C00001212B21A4393B2012210B4FFF766F8F7
:0A1A3C0001B0DDF800E001B07047D2
:101ED00081B0CDF800E091E0012904D120215A48D9
:101EE000FFF786FD03E020215748FFF797FDA5E0A7
:101EF000012904D102215448FFF77AFD03E00221B1
:101F00005148FFF78BFD99E0012904D120214F486A
:101F1000FFF76EFD03E020214C48FFF77FFD8DE0C9
:101F2000012904D104214A48FFF762FD03E004219E
:101F30004748FFF773FD81E0012904D1102144488F
:101F4000FFF756FD03E010214148FFF767FD75E0FC
:101F5000012904D120213E48FFF74AFD03E020215A
:101F60003B48FFF75BFD69E0012904D102213948B4
:101F7000FFF73EFD03E002213648FFF74FFD5DE02D
:101F8000012904D140213348FFF732FD03E040210D
:101F90003048FFF743FD51E0012904D110212E48BC
:101FA000FFF726FD03E010212B48FFF737FD45E042
:101FB000012904D120212848FFF71AFD03E0202140
:101FC0002548FFF72BFD39E0012904D104211F48E2
:101FD000FFF70EFD03E004211C48FFF71FFD2DE075
:101FE000012904D108211948FFF702FD03E0082167
:101FF0001648FFF713FD21E0012020E000283FF400
:102000006BAF01283FF474AF02283FF47DAF032883
:102010003FF486AF04283FF48FAF05283FF498AF14
:1020200006283FF4A1AF0728AAD00828B4D0092871
:10203000BED00A28C8D00B28D2D0DDE70020DDF8BA
:1020400000E001B0704700BF00C0054000900540AF
:0C2050000080054000B0054000A00540E5
:1024000081B0CDF800E009E00846FFF73FFD0AE0A3
:102410000846FFF723FE06E0012004E00028F3D081
:0E2420000128F5D0F8E7DDF800E001B07047C4
:101E8C0081B0CDF800E0016808460449FFF738FD41
:101E9C000020DDF800E001B0704700BFE42B00002B
:10190C0081B0CDF800E00A4601460348FFF790FC91
:0C191C00DDF800E001B070470000024060
:10123C0083B0CDF800E001920A46014601985C4B60
:10124C00994216D100245B4B1C60012464B25A4BAA
:10125C001C605A4C5A4B1C605A4C5B4B1C605B4CD0
:10126C005B4B1C605B4C5C4B1C605C4C5C4B1C60BB
:10127C0065E15C4B994216D100245B4B1C60012448
:10128C0064B25A4B1C605A4C4D4B1C60594C4E4B23
:10129C001C60594C4E4B1C60584C4F4B1C60584CAE
:1012AC004F4B1C604BE1574B994216D10024564BC7
:1012BC001C60012464B2554B1C60554C404B1C60A7
:1012CC00544C414B1C60544C414B1C60534C424B96
:1012DC001C60534C424B1C6031E1524B994216D16D
:1012EC000024514B1C60012464B2504B1C60504CC8
:1012FC00334B1C604F4C344B1C604F4C344B1C60BC
:10130C004E4C354B1C604E4C354B1C6017E14D4B15
:10131C00994216D100244C4B1C60012464B24B4BF7
:10132C001C604B4C264B1C604A4C274B1C604A4C97
:10133C00274B1C60494C284B1C60494C284B1C60AB
:10134C00FDE0484B994216D10024474B1C60012408
:10135C0064B2464B1C60464C194B1C60454C1A4BF6
:10136C001C60454C1A4B1C60444C1B4B1C60444C81
:10137C001B4B1C60E3E0434B994216D10024424BBB
:10138C001C60012464B2414B1C60414C0C4B1C6032
:10139C00404C0D4B1C60404C0D4B1C603F4C0E4B9D
:1013AC001C603F4C0E4B1C60C9E03E4B99427BE0ED
:1013BC00000002404000002000C4FC43FFFFFFFF80
:1013CC00BC010020F1090000C0010020610A0000EE
:1013DC00C401002035160000C8010020FFFFFFFFEC
:1013EC00CC010020001002404400002004C4FC4347
:1013FC00FFFFFFFF0D0A0000B908000051160000A6
:10140C00FFFFFFFF002002404800002008C4FC43FF
:10141C00FFFFFFFFD5090000810900002112000029
:10142C00FFFFFFFF003002404C0000200CC4FC43C7
:10143C00FFFFFFFF9D090000D50800004D110000C3
:10144C00FFFFFFFF00000C405000002010C4FC43C5
:10145C00FFFFFFFFB9090000CD110000891000004B
:10146C00FFFFFFFF00100C405400002014C4FC438D
:10147C00FFFFFFFF290A0000E9110000ED0A000040
:10148C00FFFFFFFF00200C405800002018C4FC4355
:10149C00FFFFFFFF990A00008D11000015110000DD
:1014AC00FFFFFFFF00300C4016D10024414B1C60A5
:1014BC00012464B2404B1C60404C414B1C60414CBD
:1014CC00414B1C60414C424B1C60424C424B1C60DB
:1014DC00424C434B1C6032E0424B994216D10024E3
:1014EC00414B1C60012464B2404B1C60404C344B9B
:1014FC001C60404C344B1C603F4C354B1C603F4CCB
:10150C00354B1C603E4C364B1C6018E03D4B9942F1
:10151C0015D100243C4B1C60012464B23B4B1C6075
:10152C003B4C274B1C603B4C274B1C603A4C284BCC
:10153C001C603A4C284B1C60394C294B1C600192A6
:10154C000291FFF769F90299019A01F22004102324
:10155C002360344B9A4207D106260D1D01242B68BB
:10156C0064F304132B6006E014260D1D00242B6875
:10157C0064F304132B60FEF74DFE40F2E83300FBDE
:10158C0003F506FB02F4B5FBF4F318466343EB1AC0
:10159C000BB9401EFFE77F2801D97F20FFE7012808
:1015AC0001D20120FFE701F20C031860DDF800E026
:1015BC0003B070475C0000201CC4FC43FFFFFFFF1E
:1015CC00BC010020B50A0000C0010020051200007B
:1015DC00C401002031110000C8010020FFFFFFFFF3
:1015EC00CC01002000800B406000002020C4FC4394
:1015FC00FFFFFFFF7D0A0000A5100000F91000009E
:10160C00FFFFFFFF00900B406400002024C4FC434C
:10161C00FFFFFFFF450A0000D10A0000C1100000C7
:08162C00FFFFFFFFD0CF3200E9
:1008240081B0CDF800E040F2000B82460AF1D80115
:1008340009788B4539D20C210BFB01F10AEB01013C
:100844008C460CF108010978A9B90CF10801097862
:10085400CCB20CF1060109888BB20CF104010978C1
:10086400CAB2DCF800100846D1B2002210B400F07D
:1008740049F901B014E00CF108010978CCB20CF18B
:10088400060109888BB20CF104010978CAB2DCF8BC
:1008940000100846D1B20F2210B400F033F901B0B1
:1008A4000BF1010B5FFA8BFBC0E7DDF800E001B050
:0208B40070478B
:0C02200001480068704700BF90010020FA
:10205C0081B0CDF800E0016808460449FFF750FC58
:10206C000020DDF800E001B0704700BFE42B000059
:1024300081B0CDF800E011E00846FFF71FFE16E07E
:102440000846FFF72DFE12E00846FFF73BFE0EE0C0
:102450000846FFF72BFD0AE0012008E00028EBD03A
:102460000128EDD02028EFD03028F1D0F4E7DDF8B6
:0624700000E001B070471E
:10207C0081B0CDF800E0FFF751FC044A04490A6036
:10208C000020DDF800E001B0704700BFA11800008F
:04209C0074010020AB
:1019280082B0CDF800E00346214A22490A60224AE3
:1019380022490A60224A23490A60234A23490A6045
:1019480001932348FEF76AFF019B012252B2214905
:101958000A6000BF00BF00BFFFF702FCFEF75CFC97
:1019680040F2E83100FB01F210461901914205D915
:10197800012252B218490A605A0804E0002252B201
:1019880015490A601A46C100B1FBF2F1491C4B081F
:101998009A0912490A6003F03F0211490A6060225D
:1019A80010490A60FFF7FCFBDDF800E002B0704761
:1019B800A1180000D0010020FFFFFFFFD401002084
:1019C800FFFFFFFFD8010020FFFFFFFFDC01002021
:1019D800082B000014C3FC431406224224100140C3
:0819E800281001402C10014001
:1011680081B0002149B20448016004480160044884
:10117800016001B0704700BF0006224220062242EB
:0411880024062242D5
:1011A80081B0012149B20448016004480160044843
:1011B800016001B0704700BF0006224220062242AB
:0411C8002406224295
:1020A00081B0CDF800E0FFF7D3FD044A04490A608F
:1020B0000020DDF800E001B0704700BF111B0000F8
:0420C0007401002087
:101C500082B0CDF800E00346214A22490A60224AB8
:101C600022490A60224A23490A60234A23490A601A
:101C700001932348FEF7D6FD019B012252B2214970
:101C80000A6000BF00BF00BFFEF744FEFEF7C8FABF
:101C900040F2E83100FB01F210461901914205D9EA
:101CA000012252B218490A605A0804E0002252B2D6
:101CB00015490A601A46C100B1FBF2F1491C4B08F4
:101CC0009A0912490A6003F03F0211490A60602232
:101CD00010490A60FEF70CFEDDF800E002B0704724
:101CE000111B0000D0010020FFFFFFFFD4010020E6
:101CF000FFFFFFFFD8010020FFFFFFFFDC010020F6
:101D00002C2A00001CC3FC43140626422430014048
:081D1000283001402C30014095
:1009140081B0002149B204480160044801600448E0
:10092400016001B0704700BF00062642200626423F
:04093400240626422D
:1008F00081B0012149B20448016004480160044804
:10090000016001B0704700BF000626422006264263
:040910002406264251
:1020C40081B0CDF800E0FFF7BDFC044A04490A6082
:1020D4000020DDF800E001B0704700BFD518000013
:0420E4007401002063
:101A480082B0CDF800E00346214A22490A60224AC2
:101A580022490A60224A23490A60234A23490A6024
:101A680001932348FEF7DAFE019B012252B2214975
:101A78000A6000BF00BF00BFFEF76CFFFEF7CCFB9B
:101A880040F2E83100FB01F210461901914205D9F4
:101A9800012252B218490A605A0804E0002252B2E0
:101AA80015490A601A46C100B1FBF2F1491C4B08FE
:101AB8009A0912490A6003F03F0211490A6060223C
:101AC80010490A60FEF734FFDDF800E002B0704705
:101AD800D5180000D0010020FFFFFFFFD40100202F
:101AE800FFFFFFFFD8010020FFFFFFFFDC01002000
:101AF8005029000008C3FC4314061C4224E000409F
:081B080028E000402CE0004041
:10095C0081B0002149B20448016004480160044898
:10096C00016001B0704700BF00061C4220061C420B
:04097C0024061C42EF
:1009380081B0012149B204480160044801600448BB
:10094800016001B0704700BF00061C4220061C422F
:0409580024061C4213
:101EAC0081B0CDF800E0FFF7CDFE044A04490A608A
:101EBC000020DDF800E001B0704700BF111B0000EE
:041ECC00740100207D
:1027080081B0CDF800E05A220E490F48FFF7B0FE1D
:10271800FFF7C0FE402040F00800FFF763FF0B48BA
:102728000221FFF7C5FE40F6FE57C0F2277700BF2B
:1027380000BF7F1EFDD100BF00BF00BFDDF800E075
:1027480001B07047882D0000C02C00000000002058
:1024780081B0CDF800E00446054B1A700846FFF716
:102488002FFE2046FFF780FEDDF800E001B0704720
:042498003F000020E1
:1020E800026806490A60011D0A6805490A6000F28B
:1020F80008010A6803490A60704700BF7801002098
:08210800840100207C0100208D
:1021900000F230011C310A6805490A6000F20801AA
:1021A0000A6804490A60011D0A6803490A60704709
:0C21B000880100208C010020800100202C
:10249C0081B0CDF800E0FFF735FEFFF741FEF420E8
:0C24AC00FFF758FEDDF800E001B07047BB
:1021100081B0CDF800E00020034C2468A047DDF832
:0C21200000E001B0704700BF8C010020FF
:0C18BC0001490860704700BF907FB842EF
:0C18C80001490860704700BF807FB842F3
:0C1D180001490860704700BF807FB242A4
:0C1D9C0001490860704700BF887FB0421A
:0C1DA80001490860704700BF907FB04206
:0C1D840001490860704700BF947FB04226
:0C1D900001490860704700BF807FB64228
:0C1DB40001490860704700BF907FBA42F0
:0C1DCC0001490860704700BF987FB442D6
:0C1DC00001490860704700BF9C7FB442DE
:0C1D3C0001490860704700BF887FB24278
:0C1D480001490860704700BF8C7FB24268
:0C1D240001490860704700BF947FB8427E
:0C1D300001490860704700BF847FB84282
:0C1D6C0001490860704700BF947FB2423C
:0C1D780001490860704700BF887FB0423E
:0C1D540001490860704700BF907FB0425A
:0C1D600001490860704700BF947FB0424A
:0C18400001490860704700BF847FB64279
:0C16900001490860704700BF987FB64217
:0C169C0001490860704700BF907FB44215
:0C16840001490860704700BF947FB44229
:0C166C0001490860704700BF887FB2424F
:0C16780001490860704700BF8C7FB2423F
:10212C0081B0CDF800E00020094C2468A047FFF7EF
:10213C0075FBFFF773FB0120054C2468A047FFF7E4
:10214C0051FBFFF74FFBDDF800E001B0704700BF1B
:04215C0080010020DE
:1018280045F6FE17C0F262277F1EFDD100BF00BF3C
:0818380000BF00BF00BF7047B4
:1017F00040F6FE07C0F23D077F1EFDD100BF00BFCF
:0818000000BF00BF00BF7047EC
:1021600082B0CDF800E001A90870FFF79DFA01AA3E
:10217000064909780023C8B211460122FFF79EFAEA
:10218000FFF736FBDDF800E002B070473F000020AB
:1016A80040F2000212B201210148017010B27047E5
:0416B8003E000020D0
:1016BC0085B0CDF800E0ADF80C200A468DF810305E
:1016CC0040F20004ADF808401146424C247854B165
:1016DC0001910021404C2468A0470199FFF7FAFCC6
:1016EC0000253C4C2570BDF80C40012C0DD10C781C
:1016FC000721E0B2394C2468A047BDF908400443E7
:10170C00ADF80840FFF7E6FC57E0BDF80C40022CA2
:10171C001CD10C7801910321E0B2304C2468A04715
:10172C000199BDF908400443ADF808404C1C204613
:10173C00FFF7D0FC04780521E0B2284C2468A047C0
:10174C00BDF908400443ADF8084036E00C7801912F
:10175C000321E0B2214C2468A0470199BDF908404F
:10176C000443ADF808404B1CFFF7B4FC1946BDF818
:10177C000C40641EA4B2ADF80C40012C12D90C78AC
:10178C0001910121E0B2154C2468A0470199BDF9E3
:10179C0008400443ADF808404C1C2346FFF79AFC64
:1017AC001946E4E70C780521E0B20C4C2468A047FC
:1017BC00BDF908400443ADF808409DF81040012CD9
:1017CC0002D10125034C2570BDF90800DDF800E0BD
:1017DC0005B070473E0000207801002084010020F5
:1009F00081B0CDF800E0CAB2C1B20348FFF70EFEE5
:0C0A0000DDF800E001B07047000002408B
:10061C0081B04B009BB213439BB2036001B0704797
:100A0C0081B0CDF800E0CAB2C1B20348FFF700FED6
:0C0A1C00DDF800E001B07047001002405F
:1009D40081B0CDF800E0CAB2C1B20348FFF71CFEF3
:0C09E400DDF800E001B070470020024088
:10099C0081B0CDF800E0CAB2C1B20348FFF738FE0F
:0C09AC00DDF800E001B0704700300240B0
:1009B80081B0CDF800E0CAB2C1B20348FFF72AFE01
:0C09C800DDF800E001B0704700000C40BA
:100A280081B0CDF800E0CAB2C1B20348FFF7F2FDC9
:0C0A3800DDF800E001B0704700100C4039
:100A980081B0CDF800E0CAB2C1B20348FFF7BAFD91
:0C0AA800DDF800E001B0704700200C40B9
:100AB40081B0CDF800E0CAB2C1B20348FFF7ACFD83
:0C0AC400DDF800E001B0704700300C408D
:100A7C0081B0CDF800E0CAB2C1B20348FFF7C8FD9F
:0C0A8C00DDF800E001B0704700800B4076
:100A440081B0CDF800E0CAB2C1B20348FFF7E4FDBB
:0C0A5400DDF800E001B0704700900B409E
:100A600081B0CDF800E0CAB2C1B20348FFF7DEFDA5
:0C0A7000DDF800E001B07047000002401B
:10062C0082B0CDF800E04FF000045D4B984205D14C
:10063C005C4B1D685C4B1B6801935BE05B4B984209
:10064C0006D15B4B1C685B4B1B680193254651E044
:10065C00594B984206D1594B1C68594B1B68019356
:10066C00234646E0574B984206D1574B1C68574BD4
:10067C001B68019323463CE0554B984206D1554BE1
:10068C001C68554B1B680193234632E0534B984230
:10069C0006D1534B1C68534B1B680193234628E02F
:1006AC00514B984206D1514B1C68514B1B6801931E
:1006BC0023461EE04F4B984206D14F4B1C684F4BC4
:1006CC001B680193234614E04D4B984206D14D4BC9
:1006DC001C684D4B1B68019323460AE04B4B984218
:1006EC0006D14B4B1C684B4B1B680193234600E017
:1006FC0023461D4600F208031960072A05D0032A79
:10070C0003D004462846D1B215E02E46D1B202469B
:10071C002846131D1C68C4F380135BB148B126B97D
:10072C000420019CA047012036E0731E1C4626467F
:10073C00FFE7EEE71446231D1960FFF75FFDFFF797
:10074C005DFDFFF75BFD024625462B1D1C68C4F3BF
:10075C0000034BB138B122B90420019CA047012001
:10076C001AE0521EFFE7F0E72B1D1C68C4F3400390
:10077C006BB1012902D0032900D008E02B1D1C68A5
:10078C00C4F300131BB92C1D40F2040323602B1D72
:10079C001C68C4F34003D8B2DDF800E002B0704727
:1007AC000000024040000020940100200010024094
:1007BC004400002098010020002002404800002046
:1007CC009C010020003002404C000020A0010020C1
:1007DC0000000C4050000020A401002000100C4030
:1007EC0054000020A801002000200C4058000020DC
:1007FC00AC01002000300C405C000020B001002057
:10080C0000800B4060000020B401002000900B40E1
:08081C0064000020B801002077
:1002080040F22607C0F200077F1EFDD100BF00BFE5
:0802180000BF00BF00BF7047EA
:1008B80081B0CDF800E0CAB2C1B20348FFF7B2FE7A
:0C08C800DDF800E001B0704700100240B5
:1009800081B0CDF800E0CAB2C1B20348FFF74EFE15
:0C099000DDF800E001B0704700200240DC
:1008D40081B0CDF800E0CAB2C1B20348FFF7A4FE6C
:0C08E400DDF800E001B070470030024079
:1011CC0081B0CDF800E0CAB2C1B20348FFF728FAEB
:0C11DC00DDF800E001B0704700000C409E
:1011E80081B0CDF800E0CAB2C1B20348FFF71AFADD
:0C11F800DDF800E001B0704700100C4072
:10118C0081B0CDF800E0CAB2C1B20348FFF748FA0B
:0C119C00DDF800E001B0704700200C40BE
:1012040081B0CDF800E0CAB2C1B20348FFF70CFACE
:0C121400DDF800E001B0704700300C4035
:1010A40081B0CDF800E0CAB2C1B20348FFF7BCFA80
:0C10B400DDF800E001B0704700800B4048
:100AD00081B0CDF800E0CAB2C1B20348FFF7A6FD6D
:0C0AE000DDF800E001B0704700900B4012
:1010E00049F63E47C0F200077F1EFDD100BF00BF9A
:0810F00000BF00BF00BF704704
:1025EC0082B0CDF800E001AA01211170511C0870D5
:1025FC00FFF754F801AA074909780023C8B211461D
:10260C000222FFF755F8FFF7EDF8DDF800E002B015
:08261C00704700BF3F000020E1
:1024B80083B0CDF800E0024610460D228DF80820C2
:1024C8000A228DF809201FE0FFF7AAFC23E0027812
:1024D8002AB10190FFF7A4FC0198401CF7E71AE025
:1024E80002782AB10190FFF79BFC0198401CF7E79E
:1024F80002AA1046FFF794FC0DF109021046FFF7F7
:102508008FFC08E0062007E00029DDD00129DED095
:102518000229E5D0F6E70020DDF800E003B07047B7
:101E280081B0CDF800E00178CCB2A0B2034C2468B0
:101E3800A0470020DDF800E001B0704774010020E1
:1018080081B00449096801B1FBE70349086001B0E8
:0C181800704700BF1403184200C00040DD
:1018F00081B00449096801B1FBE70349086001B000
:0C190000704700BF14031A4200D00040E2
:1018D40081B00449096801B1FBE70349086001B01C
:0C18E400704700BF14031C4200E00040ED
:1018680081B00449096801B1FBE70349086001B088
:0C187800704700BF14031E4200F0004047
:10184C0081B00449096801B1FBE70349086001B0A4
:0C185C00704700BF140320420000014050
:1018A00081B00449096801B1FBE70349086001B050
:0C18B000704700BF1403224200100140EA
:1018840081B00449096801B1FBE70349086001B06C
:0C189400704700BF1403244200200140F4
:101B100081B00449096801B1FBE70349086001B0DD
:0C1B2000704700BF140326420030014053
:10268C0081B0CDF800E01648FFF748FF14480088E9
:10269C001449FFF755FE14480121FFF707FF0121EC
:1026AC001048FFF703FF11480221FFF7FFFEFFF769
:1026BC0099F80F4800880B49FFF742FE0D4801219D
:1026CC00FFF7F4FE01210748FFF7F0FE0A4802214C
:1026DC00FFF7ECFEFFF7A2F8DDF800E001B0704761
:1026EC006800002072000020170000202400002049
:0C26FC006A0000202A00002038000020A6
:1025280085B0CDF800E0054602AA02211170019598
:10253800FFF786FC019D00F00801C9B200294BD0C5
:10254800FFF7AEF802AA2649097801950123C8B217
:1025580011460122FFF7AEF80DF10902204909786A
:102568000023C8B211460822FFF7DCFA019DFFF7E5
:102578003BF90DF10904217829802988090229806D
:10258800611C0A78298811432980AA1CA11C097892
:102598001180AA1C118809021180AB1CE11C0A7861
:1025A8001988114319802A1D211D09781180AA1D37
:1025B800611D0978118005F20802A11D09781180B2
:1025C80005F2080211880902118005F20803E11DCD
:1025D8000A78198811431980DDF800E005B07047C2
:0425E8003F00002090
:101E480082B0CDF800E001A900200870FFF728FC57
:101E580001A90B48007801230122FFF72BFC0DF1A3
:101E680005010748007800230122FFF75BFEFFF712
:101E7800BBFC0DF105000078DDF800E002B070470A
:041E88003F000020F7
:101B2C0085B0CDF800E0ADF80C200A468DF81030E9
:101B3C0040F20004ADF8084011463F4C247854B1F3
:101B4C00019101213D4C2468A0470199FFF7C2FA8D
:101B5C000025394C2570BDF80C40012C0CD10846E1
:101B6C000721374C2468A047BDF908400443ADF861
:101B7C000840FFF7AFFA51E0BDF80C40022C19D128
:101B8C00019108460B212E4C2468A0470199BDF900
:101B9C0008400443ADF808404C1C2046FFF79AFA65
:101BAC000521274C2468A047BDF908400443ADF833
:101BBC00084033E0019108460B21214C2468A047D2
:101BCC000199BDF908400443ADF808404B1CFFF7E0
:101BDC0081FA1946BDF80C40641EA4B2ADF80C4055
:101BEC00012C11D9019108460921154C2468A047F4
:101BFC000199BDF908400443ADF808404C1C23463C
:101C0C00FFF768FA1946E5E7084605210C4C2468ED
:101C1C00A047BDF908400443ADF808409DF81040BA
:101C2C00012C02D10125044C2570BDF90800DDF80A
:101C3C0000E005B0704700BF3E0000207801002096
:041C4C007C010020F7
:1016340081B0CDF800E0CAB201460348FEF7F4FDDC
:0C164400DDF800E001B07047000002403B
:10022C0084B0CDF800E0044603914FF00003029334
:10023C005E4B9C4206D15E4B1B6802935D4B1B6868
:10024C00019358E05C4B9C4206D15C4B1B680293BB
:10025C005B4B1B6801934EE05A4B9C4206D15A4BA8
:10026C001B680293594B1B68019344E0584B9C420A
:10027C0006D1584B1B680293574B1B6801933AE00D
:10028C00564B9C4206D1564B1B680293554B1B6830
:10029C00019330E0544B9C4206D1544B1B680293A3
:1002AC00534B1B68019326E0524B9C4206D1524B98
:1002BC001B680293514B1B6801931CE0504B9C42F2
:1002CC0006D1504B1B6802934F4B1B68019312E0F5
:1002DC004E4B9C4206D14E4B1B6802934D4B1B68F8
:1002EC00019308E04C4B9C4205D14C4B1B6802938C
:1002FC004B4B1B680193072A03D00B2A01D02046D5
:10030C0017E0029E2046D1B2031D1C68C4F3801373
:10031C0073B1029B4BB126B90320019CA04701206D
:10032C0040E0731E1A46134600E033461E46EBE7C8
:10033C00CAB2031D1A60FFF761FFFFF75FFFFFF7FB
:10034C005DFF029E031D1C68C4F3000363B1029B96
:10035C003BB126B90320019CA047012022E0711E6D
:10036C0000E031460E46EDE7031D1C68C4F3400364
:10037C0073B1092A02D00B2A00D008E0031D1C68B7
:10038C00C4F300131BB9041D40F20403236004E002
:10039C0000F208031C68039B1C70031D1C68C4F34B
:1003AC004003D8B2DDF800E004B070470000024012
:1003BC004000002094010020001002404400002066
:1003CC009801002000200240480000209C010020E1
:1003DC00003002404C000020A001002000000C4026
:1003EC0050000020A401002000100C4054000020FC
:1003FC00A801002000200C4058000020AC01002077
:10040C0000300C405C000020B001002000800B404C
:10041C0060000020B401002000900B40640000201C
:04042C00B8010020F3
:1016500081B0CDF800E0CAB201460348FEF7E6FDCE
:0C166000DDF800E001B07047001002400F
:1012200081B0CDF800E0CAB201460348FEF7FEFFE8
:0C123000DDF800E001B070470020024033
:10114C0081B0CDF800E0CAB201460348FFF768F859
:0C115C00DDF800E001B0704700300240F8
:1010880081B0CDF800E0CAB201460348FFF7CAF8BC
:0C109800DDF800E001B0704700000C40E3
:100AEC0081B0CDF800E0CAB201460348FFF798FB8D
:0C0AFC00DDF800E001B0704700100C4075
:1011140081B0CDF800E0CAB201460348FFF784F875
:0C112400DDF800E001B0704700200C4036
:1011300081B0CDF800E0CAB201460348FFF776F867
:0C114000DDF800E001B0704700300C400A
:1010F80081B0CDF800E0CAB201460348FFF792F884
:0C110800DDF800E001B0704700800B40F3
:1010C00081B0CDF800E0CAB201460348FFF7AEF8A0
:0C10D000DDF800E001B0704700900B401C
:10234C0081B0CDF800E00E46002183B2002805DAFA
:10235C000121404280B280B28FB201E098B28FB2BC
:10236C003146FFF733FD06213446B8B2002908D9AF
:10237C0063184A1E92B2A21812781A70491E89B2BA
:10238C00F4E72022227070B1002081B2204642185E
:10239C001278202A02D1491C89B2F8E74A1E92B25F
:0E23AC0083182D221A70DDF800E001B0704792
:101DD80081B00A4681B200208DB21146052805D28D
:101DE8000B1820221A70401CC0B2F7E70B1800220B
:101DF8001A70401EC0B20C180A23B5FBF3F203FB9D
:101E0800125292B2303222700A22B5FBF2F292B22A
:101E180095B202B902E0401EC0B2ECE701B07047CB
:1028200081B0CDF800E0344A344B354C354D364E4E
:102830004FF03011354801600021354801606FF0DC
:10284000010003EA000133480160C3F3C00018B976
:10285000FFF7F2FEFFF7F0FEC3F3000018B101210D
:1028600049B22D4801602D48864203D92C4927489A
:10287000016021E02B48864203D92B49234801609F
:102880001AE04CF25030864203D928491F480160B3
:1028900012E047F23050864203D925491B480160B7
:1028A0000AE0B6F57A5F03D922491848016003E0CF
:1028B0004FF03011154801601F4804601F48056043
:1028C0006FF0805002EA000111480160012149B215
:1028D0001B4801601B48016002F0805038B11A4863
:1028E000006800B9FBE7012149B218480160DDF832
:1028F00000E001B0704700BF040030331100000059
:102900001800800000000000C0D40100C0E00F40AB
:10291000B0E00F407CE00F40800FFC43A086010038
:10292000960130008038010055013000D30030009E
:10293000B20030007100300060E10F4064E10F40F0
:102940007C16FC437816FC43002DFC437016FC43B8
:1026380041F67E27C0F206077F1EFDD100BF00BF0E
:0826480000BF00BF00BF704796
:1027E80081B002490248016001B07047C0D40100BD
:0427F800900100202C
:0827B40081B0FEE701B070479F
:1027BC0081B04EF68850CEF20000016841F47001F1
:1027CC00016000BF00BF00BF00BFF1EE100A40F473
:0A27DC004000E1EE100A01B0704762
:102D940000B5DFF824B0DFF824A0DFF824C0FFF783
:102DA4003FFCDFF820B0DFF820A0DFF820C0FFF7F9
:102DB40037FC00BD704700BF000000203F0000202A
:102DC400202D00004000002068000020602D00003D
:102E300000B5DFF810B0DFF810A0FFF709FC00BD07
:0C2E4000704700BF00000020E0010020EF
:0410DC00A0860100E9
:1029500000B00540100040050100000000B0054037
:102960002000400501000000000000000000000001
:102970000000000000000000000000000000000057
:102980000000000000000000000000000000000047
:102990000000000000000000000000000000000037
:1029A0000000000000000000000000000000000027
:1029B0000000000000000000000000000000000017
:1029C0000000000000000000000000000000000007
:1029D00000000000000000000000000000000000F7
:1029E00000000000000000000000000000000000E7
:1029F00000000000000000000000000000000000D7
:102A000000000000000000000000000000000000C6
:102A100000000000000000000000000000000000B6
:0C2A2000000000000000000002000000A8
:102A2C0000A00540100040050100000000A005407A
:102A3C002000400501000000000000000000000024
:102A4C00000000000000000000000000000000007A
:102A5C00000000000000000000000000000000006A
:102A6C00000000000000000000000000000000005A
:102A7C00000000000000000000000000000000004A
:102A8C00000000000000000000000000000000003A
:102A9C00000000000000000000000000000000002A
:102AAC00000000000000000000000000000000001A
:102ABC00000000000000000000000000000000000A
:102ACC0000000000000000000000000000000000FA
:102ADC0000000000000000000000000000000000EA
:102AEC0000000000000000000000000000000000DA
:0C2AFC00000000000000000002000000CC
:102B080000F00540400040050100000000F00540CD
:102B180080004005010000000000000000000000E7
:102B2800000000000000000000000000000000009D
:102B3800000000000000000000000000000000008D
:102B4800000000000000000000000000000000007D
:102B5800000000000000000000000000000000006D
:102B6800000000000000000000000000000000005D
:102B7800000000000000000000000000000000004D
:102B8800000000000000000000000000000000003D
:102B9800000000000000000000000000000000002D
:102BA800000000000000000000000000000000001D
:102BB800000000000000000000000000000000000D
:102BC80000000000000000000000000000000000FD
:0C2BD800000000000000000002000000EF
:102BE40000900540040040050200000000900540EC
:102BF40008000805020000000000000000000000BA
:102C040000000000000000000000000000000000C0
:102C140000000000000000000000000000000000B0
:102C240000000000000000000000000000000000A0
:102C34000000000000000000000000000000000090
:102C44000000000000000000000000000000000080
:102C54000000000000000000000000000000000070
:102C64000000000000000000000000000000000060
:102C74000000000000000000000000000000000050
:102C84000000000000000000000000000000000040
:102C94000000000000000000000000000000000030
:102CA4000000000000000000000000000000000020
:0C2CB40000000000000000000200000012
:102CC000BD180000C9180000191D00009D1D00005E
:102CD000A91D0000851D0000911D0000B51D00000C
:102CE000CD1D0000C11D00003D1D0000491D00005C
:102CF000FFFFFFFFFFFFFFFFFFFFFFFFFFFFFFFFE4
:102D0000FFFFFFFFFFFFFFFFFFFFFFFFFFFFFFFFD3
:102D1000FFFFFFFFFFFFFFFFFFFFFFFFFFFFFFFFC3
:102D20002D2D2D2D2D2D2D496E697420646F6E650E
:102D30002D2D2D2D2D2D00434F322076616C756584
:042D4000203A200015
:062D4400202070706D00FC
:0E2D4A0054564F432076616C7565203A200088
:062D5800202070706200F3
:012D5E000074
:042D6000000000006F
:042D6400000000006B
:042D68000000000067
:042D6C000000000063
:042D7000000000005F
:042D7400000000005B
:042D78000000000057
:042D7C000000000053
:042D8000000000004F
:042D8400000000004B
:0C2D8800F1090000610A0000351600008F
:00000001FF
