:02000004000BEF
:10000000FCFF0020A11B0B00491B0B00491B0B0030
:10001000491B0B00491B0B00491B0B00491B0B0024
:10002000491B0B00491B0B00491B0B00491B0B0014
:10003000491B0B00491B0B00491B0B00491B0B0004
:10004000491B0B00491B0B00491B0B00491B0B00F4
:101BA000FFF7ECFF00F010F8FFF7D2FF00F08EF91E
:101BB00000F05AF800F03CF9FFF798FFFFF730FF0C
:081BC000FFF756FFFCE7FEE70A
:1019D00081B01CF8019B0BF8019BBBEB0A0FF8D1FF
:0419E00001B070479B
:1019E40081B04FF000094FF0000CBDEB0A0F04DC8E
:1019F400BDEB0B0F01DBD446EA464BF8049BBBEB73
:101A04000A0FFAD1BCEB0A0F05DDE246D9F800B0A3
:0A1A14000BF1040BF1E701B070477D
:101AEC0081B0CDF800E0002202210020FFF7A4FE17
:101AFC00002201210020FFF79FFE01220721002078
:101B0C00FFF79AFE0C4801460020FFF7B7FE42F2A1
:101B1C0080510120FFF7CAFE46F6FE17C0F21807E7
:101B2C0000BF00BF7F1EFDD100BF00BF00BFDDF8AE
:0C1B3C0000E001B0704700BF2C1E0B0041
:1018440081B0CDF800E05FFA81F95FFA82FA0FE027
:101854005FFA8AF15FFA89F0FFF798FC0DE05FFA0E
:101864008AF15FFA89F0FFF773FD06E0012004E0D6
:101874000028EDD00128F2D0F8E7DDF800E001B04F
:021884007047AB
:1011900081B0CDF800E0A9E0012905D140F20101BC
:1011A0006548FFF773FF04E040F201016248FFF772
:1011B00033FFBBE0012905D140F220015F48FFF772
:1011C00065FF04E040F220015C48FFF725FFADE039
:1011D000012905D140F208015948FFF757FF04E003
:1011E00040F208015648FFF717FF9FE0012905D19B
:1011F00040F210015348FFF749FF04E040F21001AC
:101200005048FFF709FF91E0012905D140F2400164
:101210004C48FFF73BFF04E040F240014948FFF72C
:10122000FBFE83E0012905D140F210014448FFF79D
:101230002DFF04E040F210014148FFF7EDFE75E09C
:10124000012905D140F210013F48FFF71FFF04E0DC
:1012500040F210013C48FFF7DFFE67E0012905D1AD
:1012600040F201013748FFF711FF04E040F20101AD
:101270003448FFF7D1FE59E0012905D140F22001A1
:101280003248FFF703FF04E040F220012F48FFF748
:10129000C3FE4BE0012905D140F210012B48FFF7B6
:1012A000F5FE04E040F210012848FFF7B5FE3DE0EE
:1012B000012905D140F201012548FFF7E7FE04E0CE
:1012C00040F201012248FFF7A7FE2FE0012905D1D6
:1012D00040F280011A48FFF7D9FE04E040F2800195
:1012E0001748FFF799FE21E0012020E000283FF495
:1012F00053AF01283FF45EAF02283FF469AF0328E3
:101300003FF474AF04283FF47FAF05283FF48AAF61
:1013100006283FF495AF0728A0D00828ACD00928AC
:10132000B8D00A28C4D00B28D0D0DDE70020DDF8E3
:1013300000E001B0704700BF001208408010084074
:10134000001008406010084060110840001108407B
:041350002010084021
:10108C0081B0CDF800E0044AC9B2FFF795FCDDF859
:0C109C0000E001B0704700BF000410002D
:1009C40081B01446314B984203D8314B984200D33E
:1009D40000E058E02E4BC31A03F01F0303B152E0AA
:1009E400064600F5A0624FF6FF7304EA03031846B7
:1009F400284B04EA03031B0C40F20008CFB2014663
:100A04001846B8F1080F3ED201231BB203FA08F3CB
:100A14001BB21CB207EA0403A34231D101F44053D0
:100A24008BB14FEA8803F5182C686FF4405304EA3D
:100A340003032B604FEA8803F51801F440542B6834
:100A440023432B601CE04FEA8803F5182C68114BF4
:100A540004EA03032B604FEA8803F41823680B436A
:100A640023604FEA8803D5182C686FF0FF0304EA6B
:100A740003032B604FEA8803D418236803432360DD
:100A840008F10108BDE701B0704700BFC01208407B
:080A9400001008400000FFFF04
:1010180081B0CDF800E0044AC9B2FFF7CFFCDDF893
:0C10280000E001B0704700BF000620008F
:1013540081B0CDF800E0A9E0012905D140F20201F5
:101364006548FFF791FE04E040F202016248FFF78E
:1013740051FEBBE0012905D140F220015F48FFF78F
:1013840083FE04E040F220015C48FFF743FEADE039
:10139400012905D140F208015948FFF775FE04E020
:1013A40040F208015648FFF735FE9FE0012905D1B8
:1013B40040F210015348FFF767FE04E040F21001C9
:1013C4005048FFF727FE91E0012905D140F2400182
:1013D4004C48FFF759FE04E040F240014948FFF74A
:1013E40019FE83E0012905D140F210014448FFF7BA
:1013F4004BFE04E040F210014148FFF70BFE75E09C
:10140400012905D140F204013D48FFF73DFE04E007
:1014140040F204013A48FFF7FDFD67E0012905D1D8
:1014240040F204013848FFF72FFE04E040F20401C3
:101434003548FFF7EFFD59E0012905D140F22001BD
:101444003248FFF721FE04E040F220012F48FFF765
:10145400E1FD4BE0012905D140F210012B48FFF7D3
:1014640013FE04E040F210012848FFF7D3FD3DE0ED
:10147400012905D140F201012548FFF705FE04E0EA
:1014840040F201012248FFF7C5FD2FE0012905D1F3
:1014940040F280011A48FFF7F7FD04E040F28001B2
:1014A4001748FFF7B7FD21E0012020E000283FF4B2
:1014B40053AF01283FF45EAF02283FF469AF03281D
:1014C4003FF474AF04283FF47FAF05283FF48AAF9C
:1014D40006283FF495AF0728A0D00828ACD00928E7
:1014E400B8D00A28C4D00B28D0D0DDE70020DDF81E
:1014F40000E001B0704700BF0012084080100840AF
:1015040000100840601008402011084000110840F5
:04151400201008405B
:1018880081B0CDF800E009E00846FFF751FE0AE014
:101898000846FFF769FC06E0012004E00028F3D0C1
:0E18A8000128F5D0F8E7DDF800E001B0704748
:1015380081B0CDF800E0016808460449FFF776FD60
:101548000020DDF800E001B0704700BFF41C0B007C
:1010340081B0CDF800E083468C4600230D4A13604E
:101044006046FFF771FD0C4C0C4B0D4A19461046D7
:101054002246FFF78FFD0CF10C021268D3B2094A45
:10106400126859461046DAB2FFF794FDDDF800E045
:1010740001B0704744000020750C0B007D090B0083
:08108400E5080B00400000200C
:100B2C0081B0CDF800E040F2000A81464FEA8A011C
:100B3C0009EB01010968B1F1FF3F12D009F1340151
:100B4C004FEA8A03C91809680A4609EB03010968C8
:100B5C0008461146FFF720FC0AF1010A1FFA8AFA2F
:0A0B6C00E4E7DDF800E001B0704797
:1003A40082B0CDF800E000F0FF02130902F00F0262
:1003B4001446D8B2FFF778FF012212B2A240ADF87A
:1003C400042000460A469DF8041000F0F9FADDF80E
:0603D40000E002B07047DA
:1002AC0081B027E028484DE028484BE0284849E039
:1002BC00284847E0284845E0284843E0284841E0E2
:1002CC0028483FE028483DE028483BE0284839E0F2
:1002DC00284837E0284835E0284833E0284831E002
:1002EC0028482FE028482DE028482BE0284829E012
:1002FC00284827E00028D5D00128D5D00228D5D011
:10030C000328D5D00428D5D00528D5D00628D5D09B
:10031C000728D5D00828D5D00928D5D00A28D5D07B
:10032C000B28D5D00C28D5D00D28D5D00E28D5D05B
:10033C000F28D5D01028D5D01128D5D01228D5D03B
:10034C001328D5D001B07047001008402010084089
:10035C00401008406010084080100840A010084071
:10036C00C0100840E010084000110840201108405F
:10037C00401108406011084080110840A01108404D
:10038C00C0110840E011084000120840201208403B
:08039C00401208406012084005
:100B780081B0044B1860044B1960044B1A6001B033
:100B8800704700BFA0010020A4010020A801002098
:100B980081B000F2280440F20023236000F2280408
:100BA8000023236080230370041D0123238001296F
:100BB80015D100F22C0444F64F73238000F2400450
:100BC800234B236000F22404224B236000F24404E8
:100BD800214B236000F218044D2323702EE00429D2
:100BE80015D100F22C0440F61773238000F240045C
:100BF8001A4B236000F22404194B236000F24404CA
:100C0800184B236000F218040A23237016E01029F9
:100C180014D100F22C0440F20953238000F240045E
:100C2800114B236000F224040D4B236000F24404AE
:100C38000C4B236000F2180406232370C1230370B1
:100C480000F2280442F4E0531BB2236001B070475D
:100C580006434D0CED01FC01C7C29C4B010A0A0476
:0C0C680050000001C7C29C1401060606E3
:1011700081B0CDF800E0016808460449FFF75AFF46
:101180000020DDF800E001B0704700BFF41C0B0048
:1018B80081B0CDF800E009E00846FFF76BFE0AE0CA
:1018C8000846FFF7F9FE06E0012004E00028F3D0FF
:0E18D8000128F5D0F8E7DDF800E001B0704718
:10159C0081B0CDF800E0002300220321FFF73CFCD2
:1015AC00034A04490A600020DDF800E001B07047EE
:0815BC00A9100B0064000020DF
:100E240084B0CDF800E01FFA82FB1FFA83FC002295
:100E34008DF80420ADF8081003904A48FFF774FEBB
:100E44000398BDF808109DF80420ADF80410029032
:100E5400FFF7D2FC0298BDF804100025424C25701F
:100E64000025424C2570B0F5E13F06D9404CA04224
:100E740003D83F4CB4FBF0F308E0B0F5E13F04D8ED
:100E84004FF4E134B4FBF0F300E00123ADF80410B7
:100E94000290FFF741FD0298BDF8041003F0FF042F
:100EA400E5B2344C25701C0A04F07F04E5B2324CE0
:100EB4002570B0F5E13F06D92F4C247844F0800525
:100EC4002D4C257005E02C4C247804F07F052A4C29
:100ED4002570ADF80410FFF78FFCBDF80410002551
:100EE400264C25700BE042F00100C0B20EE042F047
:100EF4000200C0B20AE042F00300C0B206E00129D9
:100F0400F1D00229F3D00329F5D0F4E74FEA8C0499
:100F1400A4B240EA04044FEACB05ADB2E4B22C43D8
:100F2400E4B204F07F05154C25700025144C25709F
:100F34000025144C2570144D144C2560144D154C8B
:100F44002560154D154C2560154D164C2560164C25
:100F5400247844F00105144C2570DDF800E004B059
:100F6400704700BF8C1C0B00F0270F4001240F407A
:100F740060E3160000240F4001240F4003240F40B7
:100F840004240F4002240F4051090B00B401002037
:100F9400A9100B00B801002001090B00BC010020BE
:0C0FA40031080B00C001002030270F4076
:1007FC0081B00448007800F07F010248017001B01C
:08080C00704700BF03240F40F8
:10091C0081B00448007840F080010248017001B0B9
:08092C00704700BF03240F40D7
:1016C00081B0CDF800E0002300220321FFF7AAFB40
:1016D000034A04490A600020DDF800E001B07047C9
:0816E000A9100B0064000020BA
:101A200081B0CDF800E05A220E490F48FFF75CFF65
:101A3000FFF7A4FF402040F00800FFF7ADFF0B4880
:101A40000221FFF763FF46F6FE37C0F2DC2700BF36
:101A500000BF7F1EFDD100BF00BF00BFDDF800E06A
:101A600001B07047201E0B005C1D0B000000002021
:1018E80081B0CDF800E00446054B1A700846FFF7B2
:1018F800F7FE2046FFF7CAFEDDF800E001B07047AA
:041908003E0000207D
:1016E800026806490A60011D0A6805490A6000F295
:1016F80008010A6803490A60704700BF800100209A
:081708007C01002074010020A7
:1016940000F230011C310A6805490A6000F20801B1
:1016A4000A6804490A60011D0A6803490A60704710
:0C16B40084010020880100207801002043
:10197C0081B0CDF800E0FFF71FFEFFF753FEF42017
:0C198C00FFF76AFEDDF800E001B07047D4
:1015C40081B0CDF800E00020034C2468A047DDF88A
:0C15D40000E001B0704700BF880100205B
:1010A80082B0CDF800E08DF80400FFF7A3FB0849F3
:1010B800097801F02001C9B201B9F8E79DF80410D8
:1010C80001F0FF0203490A70DDF800E002B0704742
:0810D80005240F4000240F4025
:100FE00082B0CDF800E08DF80400FFF76FFC0849EF
:100FF000097801F02001C9B201B9F8E79DF80410A1
:1010000001F0FF0203490A70DDF800E002B070470A
:0810100005280F4000280F40E5
:1008CC0081B00448007800F07F010248017001B04B
:0808DC00704700BF03280F4024
:100FB000024A117860F300011170704790130840E5
:100FD000024A117860F3451111707047841308407C
:100FC000024A117860F3C301117070478013084022
:10114000024A117860F3041111707047831308404C
:10113000024A117860F386111170704783130840DA
:10116000024A117860F3041111707047801308402F
:10115000024A117860F30411117070478B13084034
:10112000024A117860F30001117070478313084080
:1010F000024A117860F34511117070478813084057
:1010E000024A117860F304111170704788130840A8
:10111000024A117860F30001117070478113084092
:10110000024A117860F3C7111170704780130840CC
:100E1400024A117860F34101117070479013084041
:100D0C00024A117860F3C7111170704784130840C0
:100CFC00024A117860F34511117070478E13084049
:100D2C00024A117860F30411117070478313084064
:100D1C00024A117860F386111170704783130840F2
:100CBC00024A117860F304111170704780130840D8
:100CEC00024A117860F3820111707047801308403A
:100CDC00024A117860F38201117070478913084041
:100CCC00024A117860F3451111707047881308407F
:100DDC00024A117860F304111170704788130840AF
:100DCC00024A117860F300011170704781130840DA
:100E0400024A117860F3C7111170704780130840CB
:1016300081B0CDF800E00020094C2468A047FFF7F6
:10164000D5FBFFF7D3FB0120054C2468A047FFF72B
:101650008BFBFFF789FBDDF800E001B0704700BFAE
:0416600078010020ED
:100DEC0042F2FE37C0F2F40700BF00BF7F1EFDD1F8
:080DFC0000BF00BF00BF7047FB
:100D680046F6FE17C0F2180700BF00BF7F1EFDD170
:080D780000BF00BF00BF70477F
:1016640082B0CDF800E001A90870FFF765FB01AA7C
:10167400064909780123C8B211460122FFF77EFB0F
:10168400FFF770FBDDF800E002B070473E00002079
:100D3C0082B0CDF800E040F20004ADF80440064C5F
:100D4C002468A047BDF9041041EA000000B2DDF8A8
:0C0D5C0000E002B0704700BF80010020E2
:1008E40081B0CDF800E004480068FFF71BFF00204A
:0C08F400DDF800E001B07047400000207B
:1007280081B0CDF800E04FF0000224490968884202
:1007380007D123490B6823490A6823490A601A46E6
:1007480025E022490968884207D121490B682149D7
:100758000A681D490A601A4619E01F490968884253
:1007680007D11E490B681E490A6817490A601946CD
:100778000CE01C490968884207D11B490B681B49D2
:100788000A6811490A60194600E011460A461849E4
:100798000A60017801F00101C9B259B91449096820
:1007A80039B122B90520084C2468A04702E0521E3E
:1007B800FFE7EEE7DDF800E001B0704740000020F9
:1007C80044000020900100208C01002048000020F7
:1007D8004C0000209401002050000020540000200C
:1007E80098010020580000205C0000209C01002097
:0407F800600000207D
:1008940081B0CDF800E004480068FFF743FF002072
:0C08A400DDF800E001B0704748000020C3
:1008B00081B0CDF800E004480068FFF735FF002064
:0C08C000DDF800E001B07047500000209F
:1009340081B0CDF800E004480068FFF7F3FE002022
:0C094400DDF800E001B070475800002012
:1009500081B0CDF800E0FFF751FF0648007800F0C5
:100960000100C0B200B9F8E703480078DDF800E004
:0C09700001B0704705240F4000240F4028
:1009000081B00548007800F00100C0B208B10120B4
:0C09100000E0002001B0704705240F40FB
:1008300081B00548007800F04000C0B208B1012046
:0C08400000E0002001B0704705240F40CC
:1008680081B0CDF800E000F02DF80648007800F0DF
:100878000100C0B200B9F8E703480078DDF800E0ED
:0C08880001B0704705280F4000280F4009
:1008140081B00548007800F00100C0B208B10120A1
:0C08240000E0002001B0704705280F40E4
:10084C0081B00548007800F04000C0B208B101202A
:0C085C0000E0002001B0704705280F40AC
:100D800082B0CDF800E040F20004ADF80440054C1C
:100D90002468A047BDF90440044320B2DDF800E018
:080DA00002B070477C01002045
:100C740081B0CDF800E0064C246808B413460A4657
:100C84002146FFF7A9FB01B0DDF800E001B0704791
:040C940040000020FC
:1003DC0082B0CDF800E0029E40F200074FF000051D
:1003EC004E4C2468A14208D14D4CD4F800804D4CA1
:1003FC0025684D4C2560454628E04C4C2468A142AC
:10040C0008D14B4CD4F800804A4C2568464C2560EA
:10041C0045461BE0484C2468A14208D1474CD4F80F
:10042C000080474C2568404C256044460DE0454C07
:10043C002468A14208D1444CD4F80080434C256870
:10044C00394C2560444600E02C462546404C25603E
:10045C0001F2080544002C70C5240C70B8B20F468C
:10046C001D46A84231D23A4CD4F800803346394666
:10047C0017462A460C7804F08004E4B27CB1344C64
:10048C0024685CB1B8F1000F04D10420264C246818
:10049C00A0473FE0A8F10105A846FFE7EAE70C7882
:1004AC0004F00804E4B23CB901F208053C182478C5
:1004BC002C70401C80B203E001911146019A07E0B8
:1004CC0015463A460F461E46CBE73A462946334672
:1004DC001F4C2568147804F08004E4B25CB11C4C09
:1004EC0024683CB125B904200F4C2468A04711E0C6
:1004FC006D1EFFE7EEE733B1C324147002F208055A
:10050C0000242C7001E045241470884201D2012093
:10051C0000E00020DDF800E002B070474000002051
:10052C0044000020900100208C0100204800002095
:10053C004C000020940100205000002054000020AA
:10054C0098010020580000205C0000209C01002035
:04055C00600000201B
:100C980081B0CDF800E0064C246808B413460A4633
:100CA8002146FFF797FB01B0DDF800E001B070477F
:040CB80048000020D0
:100B080081B0CDF800E0064C246808B413460A46C4
:100B18002146FFF75FFC01B0DDF800E001B0704747
:040B28005000002059
:1009A00081B0CDF800E0064C246808B413460A462E
:1009B0002146FFF713FD01B0DDF800E001B07047FC
:0409C00058000020BB
:1019980082B0CDF800E001AA01211170511C087035
:1019A800FFF7C8F901AA074909780123C8B2114607
:1019B8000222FFF7E1F9FFF7D3F9DDF800E002B002
:0819C800704700BF3E00002043
:10190C0083B0CDF800E0024610460D228DF8082079
:10191C000A228DF809201FE0FFF7F8FD23E002787A
:10192C002AB10190FFF7F2FD0198401CF7E71AE08D
:10193C0002782AB10190FFF7E9FD0198401CF7E706
:10194C0002AA1046FFF7E2FD0DF109021046FFF75F
:10195C00DDFD08E0062007E00029DDD00129DED0FE
:10196C000229E5D0F6E70020DDF800E003B070476F
:1015180081B0CDF800E00178CCB2E0B2034C246889
:10152800A0470020DDF800E001B07047640000200B
:101A700081B0CDF800E01648FFF74AFE1448008810
:101A80001449FFF7A7FE14480121FFF73FFF01218A
:101A90001048FFF73BFF11480221FFF737FFFFF720
:101AA00063F90F4800880B49FFF794FE0D480121A8
:101AB000FFF72CFF01210748FFF728FF0A48022102
:101AC000FFF724FFFFF792F9DDF800E001B070475F
:101AD0006800002072000020170000202400002071
:0C1AE0006A0000202A00002038000020CE
:1017100085B0CDF800E0054602AA022111700195BE
:10172000FFF71AFF019D00F00801C9B200294BD054
:101730000195FFF703FB02AA254909780023C8B2E7
:1017400011460122FFF71CFB0DF10902204909781F
:101750000123C8B211460822FFF726FB019DFFF7BF
:1017600003FB0DF1090421782980298809022980C9
:10177000611C0A78298811432980AA1CA11C0978B8
:101780001180AA1C118809021180AB1CE11C0A7887
:101790001988114319802A1D211D09781180AA1D5D
:1017A000611D0978118005F20802A11D09781180D8
:1017B00005F2080211880902118005F20803E11DF3
:1017C0000A78198811431980DDF800E005B07047E8
:0417D0003E000020B7
:1015580082B0CDF800E001A900200870FFF7EAFB8F
:1015680001A90B48007800230122FFF705FC0DF1C3
:1015780005010748007801230122FFF711FCFFF756
:10158800EFFB0DF105000078DDF800E002B07047D0
:041598003E000020F1
:100DA80082B0CDF800E040F20004ADF80440044CF5
:100DB8002468A047BDF90400DDF800E002B07047E0
:040DC8007401002092
:10097C0081B0CDF800E0064C246808B413460A4652
:10098C002146FFF7E7FD01B0DDF800E001B070474C
:04099C0040000020F7
:1005600082B0CDF800E0029C40F2000601274FF077
:1005700000055F4C2468A14208D15E4CD4F800808D
:100580005D4C25685D4C2560454628E05C4C246840
:10059000A14208D15B4CD4F800805B4C2568574CD5
:1005A000256045461BE0594C2468A14208D1584CAF
:1005B000D4F80080574C2568504C256044460DE027
:1005C000554C2468A14208D1544CD4F80080544CB6
:1005D00025684A4C2560444600E02C462546514C8F
:1005E000256001F208054400A4B244F001042C7017
:1005F0000846B5B21E46FBB24A4C2168019131460D
:10060000AEB2019D047804F08004E4B25CB1454CC4
:1006100024683CB125B90320384C2468A04762E027
:100620006D1EFFE7EEE7047804F00804E4B28CB92D
:10063000B41CA4B28C420DD2951900F2080424789F
:100640002C70751CADB223B1002400239DB2E3B21F
:10065000FFE746E0047804F00804E4B2002C38D147
:10066000022902D04024047002E00BB94024047037
:10067000951900F2080424782C70741C3BB10023F7
:100680000025022901D10E46B6E7A9B200E0A1B2C9
:10069000244C2368ADF8041011460246BDF804004E
:1006A000147804F08004E4B25CB11E4C24683CB1C0
:1006B00023B90320114C2468A04714E05B1EFFE718
:1006C000EEE7C32414700D1802F2080424782C708D
:1006D00009E0C3240470951900F2080424782C70F2
:1006E00001E00E4688E7DDF800E002B0704700BF89
:1006F0004000002044000020900100208C010020D8
:10070000480000204C0000209401002050000020F0
:100710005400002098010020580000205C000020B8
:080720009C0100206000002094
:100AE40081B0CDF800E0064C246808B413460A46E9
:100AF4002146FFF733FD01B0DDF800E001B0704797
:040B04004800002085
:100AC00081B0CDF800E0064C246808B413460A460D
:100AD0002146FFF745FD01B0DDF800E001B07047A9
:040AE00050000020A2
:100A9C0081B0CDF800E0064C246808B413460A4631
:100AAC002146FFF757FD01B0DDF800E001B07047BB
:040ABC0058000020BE
:1017D40081B0CDF800E00E46002183B2002805DA7E
:1017E4000121404280B280B28FB201E098B28FB240
:1017F4003146FFF7F3FE06213446B8B2002908D972
:1018040063184A1E92B2A21812781A70491E89B23D
:10181400F4E72022227070B1002081B220464218E1
:101824001278202A02D1491C89B2F8E74A1E92B2E2
:0E18340083182D221A70DDF800E001B0704715
:1015E00081B00A4681B200208DB21146052805D28D
:1015F0000B1820221A70401CC0B2F7E70B1800220B
:101600001A70401EC0B20C180A23B5FBF3F203FB9C
:10161000125292B2303222700A22B5FBF2F292B22A
:1016200095B202B902E0401EC0B2ECE701B07047CB
:101BC80081B0CDF800E01F4B1F4A204C2048006828
:101BD80040F002011E480160012A08D0032A06D0FD
:101BE800042A04D0102A02D0302A00D002E0194872
:101BF800026002E0012117480160C4F3C0021649DF
:101C0800086862F3C3000860C4F3800212490868D8
:101C180062F382000860C4F340020F49086862F367
:101C280041000860C4F300020B49086862F3000031
:101C38000860FFF795F809480360DDF800E001B097
:101C4800704700BFE0010000010000000000000034
:101C580008E000E00401084008A40040080108402A
:101C680081B004490448016004490548016001B095
:101C7800704700BF80BB0000AC01002000000000DE
:041C8800B001002087
:081B480081B0FEE701B0704717
:101B500081B04EF68850CEF20000016841F4700169
:101B6000016000BF00BF00BF00BFF1EE100A40F4EB
:0A1B70004000E1EE100A01B07047DA
:101B7C0081B0DFF81000DFF810100860D0F800D04A
:101B8C0000F004B800000B0008ED00E000BF01B04D
:021B9C00704790
:101E300000B5DFF824B0DFF824A0DFF824C0FFF7F6
:101E4000C7FDDFF820B0DFF820A0DFF820C0FFF7E3
:101E5000BFFD00BD704700BF000000203E00002015
:101E6000BC1D0B004000002064000020FC1D0B0086
:101ECC0000B5DFF810B0DFF810A0FFF785FD00BDFE
:0C1EDC00704700BF00000020C40100207F
:101C8C008500000084000000FFFFFFFF0000000043
:101C9C000000000000000000000000000000000038
:101CAC000000000000000000000000000000000028
:101CBC0000000000001000000010000000000000F8
:101CCC000000000000000000000000000000000008
:101CDC0000000000000000000000000000000000F8
:081CEC000000000000000000F0
:101CF4001000000007000000FFFFFFFF03000000CA
:101D040000000000000000000000000000000000CF
:101D140000000000000000000000000000000000BF
:101D2400000000000010000000100000000000008F
:101D3400000000000000000000000000000000009F
:101D4400000000000000000000000000000000008F
:081D5400000000000000000087
:101D5C00B10F0B00D10F0B00C10F0B0041110B0089
:101D6C0031110B0061110B0051110B0021110B00F3
:101D7C00F1100B00E1100B0011110B0001110B0005
:101D8C00FFFFFFFFFFFFFFFFFFFFFFFFFFFFFFFF57
:101D9C00FFFFFFFFFFFFFFFFFFFFFFFFFFFFFFFF47
:101DAC00FFFFFFFFFFFFFFFFFFFFFFFFFFFFFFFF37
:101DBC002D2D2D2D2D2D2D496E697420646F6E6582
:101DCC002D2D2D2D2D2D00434F322076616C7565F8
:041DDC00203A200089
:061DE000202070706D0070
:0E1DE60054564F432076616C7565203A2000FC
:061DF40020207070620067
:041DFC000040004063
:041E000000000000DE
:041E04000044004056
:041E080000000000D6
:041E0C00004800404A
:041E100000000000CE
:041E1400004C00403E
:041E180000000000C6
:041E1C0000000000C2
:0C1E2000E5080B00750C0B007D090B00A1
:041E2C0001000000B1
:00000001FF
