:10000000FCFF002011230000C9220000C9220000CB
:10001000C9220000C9220000C9220000C922000034
:10002000C9220000C9220000C9220000C922000024
:10003000C9220000C9220000C9220000C922000014
:10004000C9220000C9220000C9220000C922000004
:10005000C9220000C9220000C9220000C9220000F4
:10006000C9220000C9220000C9220000C9220000E4
:10007000C9220000C9220000C9220000C9220000D4
:10008000C9220000C9220000C9220000C9220000C4
:10009000C9220000C9220000C9220000C9220000B4
:1000A000C9220000C9220000C9220000C9220000A4
:1000B000C9220000C9220000C9220000C922000094
:1000C000C9220000C9220000C9220000C922000084
:1000D000C9220000C9220000C9220000C922000074
:1000E000C9220000C9220000C9220000C922000064
:1000F000C9220000C9220000C9220000C922000054
:1023100000F010F8FFF7DCFF00F058FBFFF7EEFFCE
:1023200000F006FBFFF784FFFFF71AFFFFF740FFFF
:04233000FCE7FEE7E1
:1021280081B01CF8019B0BF8019BBBEB0A0FF8D19F
:0421380001B070473B
:10228C0081B04FF000094FF0000CBDEB0A0F04DCDD
:10229C00BDEB0B0F01DBD446EA464BF8049BBBEBC2
:1022AC000A0FFAD1BCEB0A0F05DDE246D9F800B0F3
:0A22BC000BF1040BF1E701B07047CD
:1022300081B0CDF800E0002202210020FFF70EFE61
:10224000002201210020FFF709FE012207210020C2
:10225000FFF704FE0C4801460020FFF715FF42F28D
:1022600080510120FFF7B6FE44F67D77C0F21207D9
:1022700000BF00BF7F1EFDD100BF00BF00BFDDF863
:0C22800000E001B0704700BFCC1500006A
:101E5C0081B0CDF800E05FFA81F95FFA82FA0FE009
:101E6C005FFA8AF15FFA89F0FFF71EFD0DE05FFA69
:101E7C008AF15FFA89F0FFF711FE06E0012004E019
:101E8C000028EDD00128F2D0F8E7DDF800E001B031
:021E9C0070478D
:1018B40081B0CDF800E0A9E0012905D140F2010191
:1018C4006548FFF7EFFE04E040F201016348FFF7CB
:1018D400BFFEBBE0012905D140F240016048FFF79B
:1018E400E1FE04E040F240015E48FFF7B1FEADE0E6
:1018F400012905D140F201015948FFF7D3FE04E064
:1019040040F201015748FFF7A3FE9FE0012905D1EA
:1019140040F220015448FFF7C5FE04E040F22001E4
:101924005248FFF795FE91E0012905D140F280016C
:101934004D48FFF7B7FE04E040F280014B48FFF743
:1019440087FE83E0012905D140F240014648FFF7B4
:10195400A9FE04E040F240014448FFF779FE75E037
:10196400012905D140F280014148FFF79BFE04E0C4
:1019740040F280013F48FFF76BFE67E0012905D183
:1019840040F210013A48FFF78DFE04E040F21001E6
:101994003848FFF75DFE59E0012905D140F2040102
:1019A4003548FFF77FFE04E040F204013348FFF7B7
:1019B4004FFE4BE0012905D140F208012E48FFF704
:1019C40071FE04E040F208012C48FFF741FE3DE0BF
:1019D400012905D140F220011F48FFF763FE04E00E
:1019E40040F220011D48FFF733FE2FE0012905D105
:1019F40040F210011848FFF755FE04E040F21001D0
:101A04001648FFF725FE21E0012020E000283FF4DE
:101A140053AF01283FF45EAF02283FF469AF0328B7
:101A24003FF474AF04283FF47FAF05283FF48AAF36
:101A340006283FF495AF0728A0D00828ACD0092881
:101A4400B8D00A28C4D00B28D0D0DDE70020DDF8B8
:101A540000E001B0704700BF414C0040434C0040DF
:101A6400404C0040424C0040004C0040024C0040BE
:101A7400014C0040034C0040204C0040224C0040EC
:1016A80081B0CDF800E0002424B240F240031BB220
:1016B80040F2040212B242EA03031BB240F20102F2
:1016C80012B243EA020293B2002210B4FFF762FC9E
:0A16D80001B0DDF800E001B070473A
:100F9C0083B0CDF800E08DB20146D0B2BDF90C2083
:100FAC0001F0010414B12F02BFB200E0AFB28F4CBC
:100FBC000C1B640965018D4C6419A0468C4CA04235
:100FCC0007D108F10406FD43ADB234882C403480BF
:100FDC0007E0884CA04204D108F104052C883C435E
:100FEC002C8040F2010403EA0404A4B23CB108F1E1
:100FFC000606FD43ADB234882C4034800AE040F242
:10100C00020403EA0404A4B224B108F106052C88F6
:10101C003C432C8040F2040403EA0404A4B23CB127
:10102C0008F10806FD43ADB234882C4034800AE048
:10103C0040F2080403EA0404A4B224B108F1080540
:10104C002C883C432C8040F2100403EA0404A4B224
:10105C003CB108F11806FD43ADB234882C40348005
:10106C000AE040F2200403EA0404A4B224B108F11B
:10107C0018052C883C432C8040F2400403EA0404FD
:10108C00A4B23CB108F11A06FD43ADB234882C4031
:10109C0034800AE040F2800403EA0404A4B224B1D0
:1010AC0008F11A052C883C432C8003F48074A4B2FC
:1010BC007CB908F10A06FD43ADB234882C4034806B
:1010CC0008F10C06FD43ADB234882C40348000206E
:1010DC0087E01F2A01DD012083E0FFF71DFF0020C0
:1010EC00B9B2C7B24046102F80F07A8021FA07F4CB
:1010FC00A4B204F00104A4B2002C00F06E8000F243
:10110C000A06CD43ADB234882C40348000F20C0674
:10111C00CD43ADB234882C40348003F48064A4B247
:10112C002CB1ADF806100024ADF808400DE003F426
:10113C000064A4B22CB10024ADF80640ADF8081040
:10114C0003E0ADF80610ADF8081000F20A06358879
:10115C00BDF8064045EA0404348000F20C063588DC
:10116C00BDF8084045EA04043480234C041B640990
:10117C00ADF80440214CA24218D0BDF80440E40064
:10118C00A4B265001E4C65197C08E4B264002E19EB
:10119C0007F00104E4B2E5002DB240F2FF04AC40CC
:1011AC00A4B2E543ADB234882C403480BDF8044081
:1011BC00E400A4B26500124C65197C08E4B264002A
:1011CC002E1907F00104E4B2E5002DB294B204FA32
:1011DC0005F5ADB234882C4334807F1CFFB282E716
:1011EC000020DDF800E003B0704700BF004C004069
:1011FC000000000001000000004C00400000000056
:04120C000850004046
:100F240081B042F6525103480180022102480180F7
:0C0F340001B07047005000400250004027
:1016540081B0CDF800E0002424B240F240031BB274
:1016640040F2040212B242EA03031BB240F2010246
:1016740012B243EA020293B2012210B4FFF78CFCC7
:0A16840001B0DDF800E001B070478E
:101AA80081B0CDF800E0A9E0012905D140F2080194
:101AB8006548FFF7F5FD04E040F208016348FFF7C9
:101AC800C5FDBBE0012905D140F280016048FFF760
:101AD800E7FD04E040F280015E48FFF7B7FDADE0A6
:101AE800012905D140F204015B48FFF7D9FD04E064
:101AF80040F204015948FFF7A9FD9FE0012905D1EB
:101B080040F220015648FFF7CBFD04E040F22001E7
:101B18005448FFF79BFD91E0012905D140F280016F
:101B28004F48FFF7BDFD04E040F280014D48FFF744
:101B38008DFD83E0012905D140F240014848FFF7B7
:101B4800AFFD04E040F240014648FFF77FFD75E035
:101B5800012905D140F240014348FFF7A1FD04E007
:101B680040F240014148FFF771FD67E0012905D1C6
:101B780040F240013648FFF793FD04E040F240018F
:101B88003448FFF763FD59E0012905D140F204010B
:101B98003548FFF785FD04E040F204013348FFF7BC
:101BA80055FD4BE0012905D140F208012E48FFF709
:101BB80077FD04E040F208012C48FFF747FD3DE0BF
:101BC800012905D140F220012148FFF769FD04E011
:101BD80040F220011F48FFF739FD2FE0012905D108
:101BE80040F210011A48FFF75BFD04E040F21001D3
:101BF8001848FFF72BFD21E0012020E000283FF4E2
:101C080053AF01283FF45EAF02283FF469AF0328C1
:101C18003FF474AF04283FF47FAF05283FF48AAF40
:101C280006283FF495AF0728A0D00828ACD009288B
:101C3800B8D00A28C4D00B28D0D0DDE70020DDF8C2
:101C480000E001B0704700BF214C0040234C004029
:101C5800414C0040434C0040404C0040424C004046
:101C6800004C0040024C0040014C0040034C004036
:1020880081B0CDF800E009E00846FFF7F7FC0AE068
:102098000846FFF7FDFD06E0012004E00028F3D024
:0E20A8000128F5D0F8E7DDF800E001B0704740
:101A840081B0CDF800E0011D0A68016808461146DE
:101A9400034AFFF785FE0020DDF800E001B070473F
:041AA4000C2700000B
:1017A40081B0CDF800E013460A4601460348FFF72E
:1017B40075FDDDF800E001B0704700BF0024004073
:1012A00087B0CDF800E08446059106921846FFF716
:1012B000D3FC6046FFF744FE06996046FFF750FEF8
:1012C000BCF8005040F6017445EA0404ACF8004054
:1012D00001AC2046FFF768FC069C402C05D1059D1B
:1012E000019CB4FBF5F4A0B209E0069C802C05D16A
:1012F000059D049CB4FBF5F4A0B200E000200CF1C5
:10130000060420801D4CA44506D11D4D1D4C2560B2
:101310001D4D1E4C25601CE01D4CA44506D11D4DE5
:10132000184C25601C4D194C256012E01B4CA4453F
:1013300006D11B4D134C25601A4D144C256008E056
:10134000194CA44505D1194D0E4C2560184D0F4C74
:10135000256040F201016046FFF7FAFD6046FFF7A5
:101360001BFC03216046FFF717FA02216046FFF7D6
:101370001DFADDF800E007B0704700BF0020004014
:10138000790F000090010020351200009401002028
:101390000024004059120000FD1300000028004006
:1013A0007D120000D9130000002C00401112000033
:0413B000B513000071
:100BA80082B0CDF800E004462849096801F4E06104
:100BB800090A08462549096801F0E061090E0A4654
:100BC800214601911146FFF705FC019908601F496C
:100BD800096801F07001090908461C49096801F40F
:100BE800E001090D0A4604F2080101911146FFF7D8
:100BF800F1FB019908601549096801F070010909BC
:100C080008461249096801F0E041090F0A4604F252
:100C18000C0101911146FFF7DDFB019908600B49B2
:100C2800096801F0070108460849096801F4E0214C
:100C3800090C0A46211D01911146FFF7CBFB0199CA
:100C48000860DDF800E002B0704700BF080401400A
:1003DC0081B0CDF800E002460846FFF741FFC3B2FA
:1003EC0071E0424A126802F00102D2B140F20100FF
:1003FC00FFF73EFF3D4A126802F001028AB13C4A07
:10040C00126802F400422AB14FF4FA3292FBF3F272
:10041C00104666E048F20002B2FBF3F292B290B2E0
:10042C005FE0344A1268B2FBF3F2104659E02F4AEF
:10043C00126802F00202D2B140F20200FFF718FF7C
:10044C002A4A126802F002028AB1294A126802F49E
:10045C0000422AB14FF4FA3292FBF3F2104640E01C
:10046C0048F20002B2FBF3F292B290B239E0224AA7
:10047C001268B2FBF3F2104633E0204A1268B2FB6A
:10048C00F3F210462DE01A4A126802F400422AB127
:10049C004FF4FA3292FBF3F2104622E048F20002DB
:1004AC00B2FBF3F292B290B21BE0FFF79BFEB0FBF3
:1004BC00F3F2104615E0124A1268B2FBF3F2104642
:1004CC000FE000200DE0002A3FF48BAF052AAED0E0
:1004DC00012AD2D0022AD6D0032AE6D0042AEAD0A6
:1004EC00EFE7DDF800E001B0704700BF48040140C1
:1004FC00300401409C010020A0010020500000208D
:04050C005400002077
:10026C0081B0012109B2814009B208B201B07047D6
:10027C0081B0074A07490A600749096841EA000248
:10028C0005490A60012203490A6001B0704700BFAA
:0C029C005A6900000004014050040140B9
:1001F00082B01748006800F4E02114E0154801902F
:1002000023E01548019020E0144801901DE01448B7
:1002100001901AE01348019017E01348019014E090
:100220000020019011E00029E8D0B1F5803FE8D02E
:10023000B1F5003FE8D0B1F5403FE8D0B1F5802FEF
:10024000E8D0B1F5A02FE8D0EAE7019802B07047F6
:100250000404014060E31600C0C62D00808D5B00E1
:0C026000001BB70000366E01006CDC02D1
:100C580081B0CDF800E040F2000A814609F1D801E0
:100C680009788A453AD20C210AFB01F109EB010106
:100C78008B460BF1080109781F2915D10BF10801E2
:100C88000978CCB20BF1060109888BB20BF104018B
:100C980009888AB2DBF80010084691B2002210B425
:100CA80000F078F901B014E00BF108010978CCB232
:100CB8000BF1060109888BB20BF1040109888AB28D
:100CC800DBF80010084691B2FF2210B400F062F978
:100CD80001B00AF1010A5FFA8AFABFE7DDF800E01D
:040CE80001B07047A0
:100F400081B00122018862F30001018001B0704785
:100F600081B003884FF63F7203EA020202800288D2
:080F70000A43028001B0704742
:100F500081B08BB2028863F30412028001B0704743
:100B980081B00022018862F30001018001B0704732
:1007980081B000F22C04CB439BB222881A402280FD
:0407A80001B07047E5
:1007AC0081B000F22A031A880A431A8001B07047FC
:101C980081B0CDF800E0011D0A68016808461146C8
:101CA800034AFFF77BFD0020DDF800E001B0704734
:041CB8000C270000F5
:101FD40081B0CDF800E00DE00846FFF757FC10E0B3
:101FE4000846FFF7FFFE0CE00846FFF7E9FE08E0AD
:101FF400012006E00028EFD00128F1D01028F3D00A
:0A200400F6E7DDF800E001B07047D8
:1018900081B0CDF800E0FFF755FF044A04490A6023
:1018A0000020DDF800E001B0704700BF8D1500009A
:0418B00058000020BC
:1017440081B0CDF800E084460B4A0C490A600C4A8B
:101754000C490A600C4A0D490A600D4A0D490A6099
:101764000D48FFF777FA61460C48FFF757FEDDF89E
:1017740000E001B0704700BF8D150000A4010020F7
:10178400FFFFFFFFA8010020FFFFFFFFAC010020C7
:10179400FFFFFFFFB0010020782400000018004084
:1014200081B0CDF800E007460C463846FFF7ACF92E
:1014300040F280013846FFF76DFB40F2000138466C
:10144000FFF75AFB40F200013846FFF795FB40F2E8
:1014500000013846FFF76AFB40F200013846FFF70B
:1014600039FB40F200013846FFF758FA214638466A
:10147000FFF7A4F93846FFF723FBDDF800E001B0E1
:021480007047B3
:0E07880081B0018841F00101018001B070478D
:100B140081B003884FF63F7203EA02020280028822
:080B24000A43028001B0704792
:100AF80081B031B903884DF6FF7203EA0202028021
:0C0B080002E002880A43028001B070473E
:100B780081B0B1F5006F03D102880A43028005E015
:100B880003884FF2FF7203EA0202028001B0704745
:100B2C0081B019E0038847F6FF7203EA02020280E3
:100B3C0019E0028842F40042028002880A430280D3
:100B4C0011E0028842F40042028003884BF6FF72E7
:100B5C0003EA0202028006E00029E3D0B1F5804FDF
:0A0B6C00E7D00029EDD001B070477A
:100AD40081B0B1F5807F04D1028842F48072028033
:100AE40005E003884FF6FF6203EA0202028001B0C8
:020AF400704749
:10091C0081B0B1F5805F03D102880A43028005E003
:10092C0003884EF6FF7203EA0202028001B07047A0
:1007BC0088B0CDF800E005460E4604AA104600F0BD
:1007CC00EDF904AA11462846FFF764FF00EE900AE3
:1007DC00F8EE600A00EE106AB8EE400A80EE800A6D
:1007EC00B0EE401A01AA1046FFF770FFDDED010ACA
:1007FC00FCEE600A10EE902A92B291B2414A00EEE1
:10080C00902A20EE200ABCEE400A10EE100A80B2AC
:10081C0005F2080423884FF6FE7203EA02022280D6
:10082C0010292ED905F208031A8842F001021A8009
:10083C00B3EE000A81EE000ABCEE400A10EE102A5C
:10084C0092B2ADF80820B3EE000AC1EE000AB3EE86
:10085C00000A81EE000ABCEE400A10EE102A92B299
:10086C0000EE102AB8EE400A70EEC00AB3EE000A91
:10087C0020EE800ABCEE400A10EE102A92B2ADF8BF
:10088C000A2020B90022ADF80C20284616E00124DD
:10089C002946242C11D263001B4AD218128890428C
:1008AC0008D2621E12B25300184AD2181288ADF840
:1008BC000C2002E0641CE4B2EBE70846831D002226
:1008CC001A80841D2388BDF8082043EA0202228086
:1008DC0000F208031A8802F001021A8000F20804E0
:1008EC00BDF80C2013029BB2BDF80A20120192B283
:1008FC0013439BB222881A432280DDF800E008B033
:10090C00704700BF00401C4690280000482800009B
:1006A00081B0028802F0C00292B2920992B290B276
:1006B0000AB900200EE0012802D10A68104609E0BC
:1006C000022802D0032800D004E001F20C021268D4
:0806D0001046FFE701B070477E
:1006D80082B08DED010A9DED010AB5EEC00AF1EE7A
:1006E80010FA0ADBDDED010AB7EE000AF4EEC00AE3
:1006F800F1EE10FA01DA012100E0002189B9DDEDFF
:10070800010ABFEE000AF4EEC00AF1EE10FA07DDA6
:100718009DED010AB5EEC00AF1EE10FA00DC00E02A
:1007280008E04FF0000100EE101A00ED000A9DED00
:10073800010A23E001A90968C90D01F0FF017F3909
:1007480089B2182908D99DED010A00ED000A4FF079
:10075800000100EE101A11E09DED010ABDEE400AFD
:1007680010EE101A00EE101AB8EEC00A00ED000ADA
:1007780050ED000A9DED010A30EE600A02B07047A4
:100AC00081B002884FF6FE7102EA0101018001B097
:020AD00070476D
:101DE80081B0CDF800E0FFF779FC044A04490A60A5
:101DF8000020DDF800E001B0704700BFA915000021
:041E0800580000205E
:1016E40081B0CDF800E084460B4A0C490A600C4AEC
:1016F4000C490A600C4A0D490A600D4A0D490A60FA
:101704000D48FFF7A7FA61460C48FFF787FEDDF89E
:1017140000E001B0704700BFA9150000A40100203B
:10172400FFFFFFFFA8010020FFFFFFFFAC01002027
:10173400FFFFFFFFB001002054250000001400400B
:101DC40081B0CDF800E0FFF7FBFC044A04490A6047
:101DD4000020DDF800E001B0704700BF5515000099
:041DE4005800002083
:1017C40081B0CDF800E084460B4A0C490A600C4A0B
:1017D4000C490A600C4A0D490A600D4A0D490A6019
:1017E4000D48FFF737FA61460C48FFF717FEDDF89E
:1017F40000E001B0704700BF55150000A4010020AF
:10180400FFFFFFFFA8010020FFFFFFFFAC01002046
:10181400FFFFFFFFB0010020302600000010004051
:1021600081B0CDF800E05A220E490F48FFF75EFF1C
:10217000FFF74EFF402040F00800FFF769FF0B48D3
:102180000221FFF799FF45F2FD07C0F2252700BFA6
:102190007F1EFDD100BF00BF00BF00BFDDF800E023
:1021A00001B07047C4150000E827000000000020BF
:10202C0081B0CDF800E00446054B1A700846FFF766
:10203C0089FE2046FFF7AAFEDDF800E001B07047EC
:04204C003F00002031
:101D5000026803490A60011D0A6802490A60704767
:081D60006C0100206801002065
:101D980000F230011C310A6805490A6000F20801A6
:101DA8000A6804490A60011D0A6803490A60704705
:0C1DB80078010020700100207401002060
:1020100081B0CDF800E0FFF7F9FEFFF705FFF420EF
:0C202000FFF7A2FEDDF800E001B0704701
:101E0C0081B0CDF800E00020034C2468A047DDF839
:0C1E1C0000E001B0704700BF7001002022
:0C16480001490870704700BF608809422B
:0C169C0001490870704700BF58880942DF
:0C16900001490870704700BF4088094203
:0C186C0001490870704700BF5480094219
:0C18600001490870704700BF5C8009421D
:0C18780001490870704700BF5880094209
:0C18840001490870704700BF7C800942D9
:0C18300001490870704700BF7080094239
:0C18480001490870704700BF4884094245
:0C183C0001490870704700BF4C8409424D
:0C18240001490870704700BF7488094239
:0C18540001490870704700BF708809420D
:0C150C0001490870704700BF6C84094260
:0C15180001490870704700BF7C88094240
:0C15000001490870704700BF488809428C
:0C14E80001490870704700BF54800942A1
:0C14F40001490870704700BF5C8009428D
:0C14B80001490870704700BF58800942CD
:0C14AC0001490870704700BF78800942B9
:0C14DC0001490870704700BF7888094281
:0C14D00001490870704700BF68800942A5
:0C14C40001490870704700BF6C800942AD
:0C15240001490870704700BF748809423C
:0C15E80001490870704700BF708809427C
:101E280081B0CDF800E00020094C2468A047FFF7F6
:101E3800CBFBFFF7C9FB0120054C2468A047FFF73F
:101E4800DBFBFFF7D9FBDDF800E001B0704700BF0E
:041E580074010020F1
:1015D00041F6FD27C0F2B70700BF00BF7F1EFDD157
:0815E00000BF00BF00BF70470F
:1016000044F67D77C0F2120700BF00BF7F1EFDD1F8
:0816100000BF00BF00BF7047DE
:101D680082B0CDF800E001A90870FFF765FC01AA70
:101D7800064909780123C8B211460122FFF748FC39
:101D8800FFF73AFCDDF800E002B070473F000020A2
:0816400040F2000000B2704707
:1016180082B0CDF800E040F20004ADF80440054C7B
:101628002468A047BDF90440044320B2DDF800E077
:0816380002B070476C010020B4
:1012340081B0CDF800E008B413460A46C1B20448B0
:10124400FFF77AFB01B0DDF800E001B0704700BFA2
:041254000020004036
:10093C0087B0CDF800E08DF8041001469DF8040056
:10094C0005920693079C07944C4CA1420AD14C4D3E
:10095C002C6803942C46246804944A4C25684A4C11
:10096C00256028E0494CA1420AD1494D2C680394DA
:10097C002C4624680494474C2568434C25601AE0A7
:10098C00454CA1420AD1454D2C6803942C46246851
:10099C000494434C25683C4C25600CE0414CA1422E
:1009AC0009D1414D2C6803942C46246804943F4C87
:1009BC002568354C256001910291C1B20298FFF770
:1009CC004DFE01993A4C247854B901910846012105
:1009DC00FFF798FD019908B101204BE00D461FE08F
:1009EC0001250C8865F304140C8008460588C5F3B2
:1009FC0080046CB1049C54B1039C2CB90720224C8C
:100A0C002468A047012035E0039C641E0394EDE7A5
:100A1C00048844F0020404800025254C257005460A
:100A2C0000262A463146069CA14214D2059C641825
:100A3C00247801920291E1B21046FFF741FC029931
:100A4C00019A20B11046FFF729FC012012E04C1C42
:100A5C0026463146E7E7079C012C07D11046FFF7E5
:100A6C001DFC002801D0012004E002E00125104CFF
:100A7C0025700020DDF800E007B070470020004032
:100A8C0040000020800100207C0100200024004058
:100A9C004400002084010020002800404800002071
:100AAC0088010020002C00404C0000208C0100200C
:040ABC003E000020D8
:1006680081B000F2140212888A420FD000F21602FA
:1006780012888A420AD000F2180212888A4205D0EB
:1006880000F21A0212888A4200D000E002E000F26A
:080698002002118001B070473F
:1005100085B0CDF800E0CCB20146464A91420AD1FE
:10052000454B1A6803921A4612680492434A1368AC
:10053000434A136028E0434A91420AD1424B1A6869
:1005400003921A4612680492404A13683C4A1360A8
:100550001AE03F4A91420AD13E4B1A6803921A466A
:10056000126804923C4A1368354A13600CE03B4A17
:10057000914209D13A4B1A6803921A4612680492C2
:10058000384A13682E4A13608DF8044002910846D9
:10059000FFF7C2FD02999DF8044008B1012044E034
:1005A000E3B20A8863F304120A800A8842F0020266
:1005B0000A80012C1CD1084600F22C021388C3F3D8
:1005C00040026AB9049A52B1039A2AB906201C4C17
:1005D0002468A047012028E0039A521E0392EBE70B
:1005E00000F22C040023228863F3410222801BE0E6
:1005F000084600F22C021388C3F300026AB9049A79
:1006000052B1039A2AB906200D4C2468A047012054
:100610000BE0039A521E0392EBE700F22C04002336
:10062000228863F3000222800020DDF800E005B09C
:10063000704700BF002000404000002080010020E3
:100640007C010020002400404400002084010020A0
:10065000002800404800002088010020002C0040B5
:080660004C0000208C01002079
:1001180083B0CDF800E0274988420AD1264A116801
:10012800019111460968029124490A6824490A6024
:1001380028E0244988420AD1234A116801911146CE
:100148000968029121490A681D490A601AE0204994
:1001580088420AD11F4A1168019111460968029123
:100168001D490A6816490A600CE01C49884209D1F1
:100178001B4A1168019111460968029119490A68D8
:100188000F490A6003461846FFF7B6FF68B9029997
:1001980051B1019929B90520094C2468A0470120CB
:1001A80004E00199491E0191EDE70020DDF800E027
:1001B80003B070470020004040000020800100206C
:1001C8007C0100200024004044000020840100201D
:1001D800002800404800002088010020002C004032
:0801E8004C0000208C010020F6
:1001000081B000F208010A88C2F3001181F00101F8
:08011000C9B2C8B201B070478A
:1002CC0083B0CDF800E0354A90420AD1344B1A681D
:1002DC0001921A4612680292324A1368324A13602B
:1002EC0028E0324A90420AD1314B1A6801921A46E0
:1002FC00126802922F4A13682B4A13601AE02E4A96
:10030C0090420AD12D4B1A6801921A461268029239
:10031C002B4A1368244A13600CE02A4A904209D1F4
:10032C00294B1A6801921A4612680292274A1368DE
:10033C001D4A136000F22C021388C3F3401232B131
:10034C0000F22C040023228863F34512228000F271
:10035C000E02118000F22C021388C3F340026AB91A
:10036C00029A52B1019A2AB904200F4C2468A04772
:10037C0001200FE0019A521E0192EBE700F22C04CF
:10038C000023228863F34102228000F22C0213889E
:10039C00C3F34010DDF800E003B0704700200040CC
:1003AC0040000020800100207C010020002400403F
:1003BC004400002084010020002800404800002058
:1003CC0088010020002C00404C0000208C010020F3
:1002A80081B0CDF800E00122018862F3820101806B
:1002B800FFF72EFF08B1012000E00020DDF800E084
:0402C80001B07047CA
:1013FC0081B0CDF800E008B413460A46C1B20448E7
:10140C00FFF796FA01B0DDF800E001B0704700BFBD
:04141C000024004068
:1013D80081B0CDF800E008B413460A46C1B204480B
:1013E800FFF7A8FA01B0DDF800E001B0704700BFD0
:0413F8000028004089
:1013B40081B0CDF800E008B413460A46C1B204482F
:1013C400FFF7BAFA01B0DDF800E001B0704700BFE2
:0413D400002C0040A9
:1020500082B0CDF800E001AA01211170511C087076
:10206000FFF7EEFA01AA074909780123C8B2114621
:102070000222FFF7D1FAFFF7C3FADDF800E002B061
:08208000704700BF3F00002083
:1020B80083B0CDF800E0024610460D228DF80820C6
:1020C8000A228DF809201FE0FFF7D2FD23E00278ED
:1020D8002AB10190FFF7CCFD0198401CF7E71AE000
:1020E80002782AB10190FFF7C3FD0198401CF7E779
:1020F80002AA1046FFF7BCFD0DF109021046FFF7D2
:10210800B7FD08E0062007E00029DDD00129DED070
:102118000229E5D0F6E70020DDF800E003B07047BB
:101C780081B0CDF800E00178CCB2A0B2034C246862
:101C8800A0470020DDF800E001B0704758000020B0
:1015540081B0CDF800E081B20348FFF791FFDDF8D8
:0C15640000E001B0704700BF0010004024
:1014840081B0ADF800100146BDF8000001F20A0277
:10149400128802F0010292B202B1F7E701F20E02E1
:0614A400108001B070474A
:1015A80081B0CDF800E081B20348FFF767FFDDF8AE
:0C15B80000E001B0704700BF00140040CC
:10158C0081B0CDF800E081B20348FFF775FFDDF8BC
:0C159C0000E001B0704700BF00180040E4
:1015700081B0CDF800E081B20348FFF783FFDDF8CA
:0C15800000E001B0704700BF001C0040FC
:1021B00081B0CDF800E01648FFF7AAFE1448008869
:1021C0001449FFF76DFE14480121FFF775FF012147
:1021D0001048FFF771FF11480221FFF76DFFFFF76D
:1021E0000FFA0F4800880B49FFF75AFE0D480121EE
:1021F000FFF762FF01210748FFF75EFF0A4802214F
:10220000FFF75AFFFFF7E4F9DDF800E001B070478F
:102210005C00002066000020170000202400002041
:0C2220005E0000202A0000203800002092
:101F100085B0CDF800E0054602AA022111700195B6
:101F2000FFF7CCFE019D00F00801C9B200294BD09B
:101F3000FFF786FB02AA2649097801950023C8B25B
:101F400011460122FFF768FB0DF1090220490978CB
:101F50000123C8B211460822FFF7EAFA019DFFF7F4
:101F60004FFB0DF109042178298029880902298075
:101F7000611C0A78298811432980AA1CA11C0978B0
:101F80001180AA1C118809021180AB1CE11C0A787F
:101F90001988114319802A1D211D09781180AA1D55
:101FA000611D0978118005F20802A11D09781180D0
:101FB00005F2080211880902118005F20803E11DEB
:101FC0000A78198811431980DDF800E005B07047E0
:041FD0003F000020AE
:101CBC0082B0CDF800E001A900200870FFF7BAFC53
:101CCC0001A90B48007800230122FFF79FFC0DF1BE
:101CDC0005010748007801230122FFF723FCFFF7D9
:101CEC0089FC0DF105000078DDF800E002B07047CA
:041CFC003F00002085
:1015300082B0CDF800E040F20004ADF80440044C65
:101540002468A047BDF90400DDF800E002B0704750
:04155000680100200E
:100F780081B0CDF800E008B413460A46C1B204486F
:100F8800FFF7B0FE01B0DDF800E001B0704700BF28
:040F980000200040F5
:100CEC0087B0CDF800E08DF8041001469DF80400A3
:100CFC00079E7B4CA1420AD17A4D2C6805942C4658
:100D0C0024680694784C2568784C256028E0784C4B
:100D1C00A1420AD1774D2C6805942C462468069480
:100D2C00754C2568714C25601AE0744CA1420AD1AF
:100D3C00734D2C6805942C4624680694714C2568D8
:100D4C006A4C25600CE0704CA14209D16F4D2C68A7
:100D5C0005942C46246806946D4C2568634C2560DC
:100D6C00019202910391C1B20398FFF777FC0299AB
:100D7C00019A684C24787CB90196029303920491F1
:100D8C0008460021FFF7BEFB0499039A029B019EC3
:100D9C0000B1A0E0304661E000250C8865F3041436
:100DAC000C80012B39D130460D88C5F3800464B119
:100DBC00069C4CB1059C24B907204C4C2468A047D8
:100DCC0089E0059C641E0594EEE7069C05940C884E
:100DDC0044F002040C80019111461A460346019816
:100DEC000588C5F3400464B1069C4CB1059C24B93C
:100DFC0006203E4C2468A0476DE0059C641E0594BB
:100E0C00EEE7069C0594048844F0040404800192E7
:100E1C000A4601461846019B1DE001930B463046DD
:100E2C0001991D88C5F3800464B1069C4CB1059CE6
:100E3C0024B907202D4C2468A0474CE0059C641E67
:100E4C000594EEE7069C05941C8844F002041C8073
:100E5C0001930B46019900252E4C25705C1E2346F0
:100E6C0001931346019A002A31DB01F22C042588E8
:100E7C00C5F3000464B9069C4CB1059C24B903204D
:100E8C001A4C2468A04726E0059C641E0594ECE7E8
:100E9C0016E001F20C0424881C705B1C15E0012583
:100EAC000C8865F382040C8001F20C0424881C70FD
:100EBC005B1C0AE001F20C0424881C705B1C04E02F
:100ECC00002AE6D0012AEAD0F4E7521ECBE710B98B
:100EDC000125104C2570DDF800E007B0704700BF0D
:100EEC000020004040000020800100207C010020F8
:100EFC000024004044000020840100200028004011
:100F0C004800002088010020002C00404C000020EC
:080F1C008C0100203E000020C2
:1012580081B0CDF800E008B413460A46C1B204488C
:10126800FFF740FD01B0DDF800E001B0704700BFB6
:04127800002400400E
:10127C0081B0CDF800E008B413460A46C1B2044868
:10128C00FFF72EFD01B0DDF800E001B0704700BFA4
:04129C0000280040E6
:1012100081B0CDF800E008B413460A46C1B20448D4
:10122000FFF764FD01B0DDF800E001B0704700BFDA
:04123000002C00404E
:101EA00081B0CDF800E00E46002183B2002805DAAB
:101EB0000121404280B280B28FB201E098B28FB26D
:101EC0003146FFF71DFF06213446B8B2002908D974
:101ED00063184A1E92B2A21812781A70491E89B26B
:101EE000F4E72022227070B1002081B2204642180F
:101EF0001278202A02D1491C89B2F8E74A1E92B210
:0E1F000083182D221A70DDF800E001B0704742
:101D000081B00A4681B200208DB21146052805D265
:101D10000B1820221A70401CC0B2F7E70B180022E3
:101D20001A70401EC0B20C180A23B5FBF3F203FB75
:101D3000125292B2303222700A22B5FBF2F292B203
:101D400095B202B902E0401EC0B2ECE701B07047A4
:1023340083B0CDF800E0374B374C384D384E394F29
:10234400394845F680213948018004F00700052802
:1023540004D004F07000502800D00BE0012252B2E7
:1023640033480280002149B2324801803248028059
:1023740032480180802132480160019502961E4650
:1023840025463A46029B019C2E48006800F4807062
:1023940000B1F9E72C492D480160019511463246F8
:1023A4001D46019B2748006800F4807000B1F9E7DE
:1023B40027480160274801602749284801602848C8
:1023C400026028480360200D00F0070028B944F09B
:1023D4000301254801602A4610E044F4803040F0AF
:1023E4000301214801602A462048006830B1FFF704
:1023F400A5FE012149B21E480160F5E700211748F6
:10240400016042F4B44109480180DDF800E003B002
:10241400704700BF00000500330000000300010006
:10242400840000000010000080BB00000C48004045
:102434004CA509428CA5094248A5094288A5094230
:10244400143004E00400014001005A690000014016
:1024540010100140141001405A69000000040140AA
:1024640004040140080401400C0401400489204292
:04247400048A204274
:1021400040F20907C0F2000700BF00BF7F1EFDD1AB
:0821500000BF00BF00BF704793
:1022FC0081B002490248016001B0704780BB000008
:04230C009801002014
:0822C80081B0FEE701B0704790
:1022D00081B04EF68850CEF20000016841F47001E2
:1022E000016000BF00BF00BF00BFF1EE100A40F464
:0A22F0004000E1EE100A01B0704753
:1029300000B5DFF824B0DFF824A0DFF824C0FFF7EB
:10294000F3FBDFF820B0DFF820A0DFF820C0FFF7AE
:10295000EBFB00BD704700BF000000203F000020DF
:10296000D82800004000002058000020182900004E
:1029CC0000B5DFF810B0DFF810A0FFF759FC00BD20
:0C29DC00704700BF00000020B401002084
:0815C400FD13000059120000A4
:0415CC00A0860100F4
:10247800204C00400400050500000000204C0040EE
:102488000800050500000000000000000000000032
:102498000000000000000000000000000000000034
:1024A8000000000000000000000000000000000024
:1024B8000000000000000000000000000000000014
:1024C8000000000000000000000000000000000004
:1024D80000000000000000000000000000000000F4
:1024E80000000000000000000000000000000000E4
:1024F80000000000000000000000000000000000D4
:1025080000000000000000000000000000000000C3
:1025180000000000000000000000000000000000B3
:1025280000000000000000000000000000000000A3
:102538000000000000000000000000000000000093
:0C25480000000000000000000200000085
:10255400004C00400004050500000000004C004051
:102564000008050500000000000000000000000055
:102574000000000000000000000000000000000057
:102584000000000000000000000000000000000047
:102594000000000000000000000000000000000037
:1025A4000000000000000000000000000000000027
:1025B4000000000000000000000000000000000017
:1025C4000000000000000000000000000000000007
:1025D40000000000000000000000000000000000F7
:1025E40000000000000000000000000000000000E7
:1025F40000000000000000000000000000000000D7
:1026040000000000000000000000000000000000C6
:1026140000000000000000000000000000000000B6
:0C262400000000000000000002000000A8
:10263000004C00400400050500000000004C004074
:102640000800050500000000000000000000000078
:10265000000000000000000000000000000000007A
:10266000000000000000000000000000000000006A
:10267000000000000000000000000000000000005A
:10268000000000000000000000000000000000004A
:10269000000000000000000000000000000000003A
:1026A000000000000000000000000000000000002A
:1026B000000000000000000000000000000000001A
:1026C000000000000000000000000000000000000A
:1026D00000000000000000000000000000000000FA
:1026E00000000000000000000000000000000000EA
:1026F00000000000000000000000000000000000DA
:0C270000000000000000000002000000CB
:10270C00404C00400010000500000000404C004010
:10271C000020000500000000000000000000000088
:10272C00000000000000000000000000000000009D
:10273C00000000000000000000000000000000008D
:10274C00000000000000000000000000000000007D
:10275C00000000000000000000000000000000006D
:10276C00000000000000000000000000000000005D
:10277C00000000000000000000000000000000004D
:10278C00000000000000000000000000000000003D
:10279C00000000000000000000000000000000002D
:1027AC00000000000000000000000000000000001D
:1027BC00000000000000000000000000000000000D
:1027CC0000000000000000000000000000000000FD
:0C27DC00000000000000000002000000EF
:1027E800491600009D160000911600006D180000A3
:1027F80061180000791800008518000031180000E1
:10280800491800003D180000251800005518000060
:10281800FFFFFFFFFFFFFFFFFFFFFFFFFFFFFFFFC0
:10282800FFFFFFFFFFFFFFFFFFFFFFFFFFFFFFFFB0
:10283800FFFFFFFFFFFFFFFFFFFFFFFFFFFFFFFFA0
:102848000000010002000400080010002000110030
:10285800210022004400250049004A00520092004D
:1028680053005500AA006B00AD00B500B600D600B5
:10287800B700BB00DD00ED00EE00BF00DF00EF0099
:08288800F700FB00FD00FE005B
:1028900000001102CB024303E903E4049605860617
:1028A0006308B008C709B80B070DF70DA90EA30FF1
:1028B000BE101A118A13531673176E1820190B1AAB
:1028C000591BEB1B4F1DB51E441F8D2010217C2171
:0828D0002F222C23D2234824FF
:1028D8002D2D2D2D2D2D2D496E697420646F6E655B
:1028E8002D2D2D2D2D2D00434F322076616C7565D1
:0428F800203A200062
:0628FC00202070706D0049
:0E29020054564F432076616C7565203A2000D4
:062910002020707062003F
:0129160000C0
:0429180000000000BB
:04291C0000000000B7
:0429200000000000B3
:0429240000000000AF
:042928001027000074
:04292C0000366E0102
:00000001FF
