:10000000FCFF0220FD250000B5250000B5250000FD
:10001000B5250000B5250000B5250000B525000078
:10002000B5250000B5250000B5250000B525000068
:10003000B5250000B5250000B5250000B525000058
:10004000B5250000B5250000B5250000B525000048
:10005000B5250000B5250000B5250000B525000038
:10006000B5250000B5250000B5250000B525000028
:10007000B5250000B5250000B5250000B525000018
:10008000B5250000B5250000B5250000B525000008
:10009000B5250000B5250000B5250000B5250000F8
:1000A000B5250000B5250000B5250000B5250000E8
:1000B000B5250000B5250000B5250000B5250000D8
:1000C000B5250000B5250000B5250000B5250000C8
:1000D000B5250000B5250000B5250000B5250000B8
:1000E000B5250000B5250000B5250000B5250000A8
:1000F000B5250000B5250000B5250000B525000098
:10010000B5250000B5250000B5250000B525000087
:10011000B5250000B5250000B5250000B525000077
:10012000B5250000B5250000B5250000B525000067
:10013000B5250000B5250000B5250000B525000057
:10014000B5250000B5250000B5250000B525000047
:10015000B5250000B5250000B5250000B525000037
:10016000B5250000B5250000B5250000B525000027
:10017000B5250000B5250000B5250000B525000017
:10018000B5250000B5250000B5250000B525000007
:08019000B5250000B5250000B3
:1025FC0000F010F8FFF7DCFF00F0EEFCFFF7EEFF49
:10260C0000F09CFCFFF7A2FFFFF778FFFFF738FF05
:04261C00FCE7FEE7F2
:10243C0081B01CF8019B0BF8019BBBEB0A0FF8D188
:04244C0001B0704724
:1024500081B04FF000094FF0000CBDEB0A0F04DC17
:10246000BDEB0B0F01DBD446EA464BF8049BBBEBFC
:102470000A0FFAD1BCEB0A0F05DDE246D9F800B02D
:0A2480000BF1040BF1E701B0704707
:1025580081B0CDF800E0002202210020FFF7AEFE96
:10256800002201210020FFF7A9FE012207210020F7
:10257800FFF7A4FE0C4801460020FFF701FF42F2D6
:1025880080510120FFF776FE40F6FE07C0F23D07B6
:1025980000BF00BF7F1EFDD100BF00BF00BFDDF838
:0C25A80000E001B0704700BF442F0000AD
:1022C40081B0CDF800E05FFA81F85FFA82F916E098
:1022D4005FFA89F15FFA88F0FFF77CFB16E05FFA9A
:1022E40089F15FFA88F0FFF77BFC0FE05FFA89F170
:1022F4005FFA88F0FFF768FD08E0012006E0002897
:10230400E6D00128EBD00228F0D0F6E7DDF800E0B3
:0423140001B070475D
:1019D80081B0CDF800E0A9E0012905D14FF004015C
:1019E8006548FFF753FF04E04FF004016348FFF731
:1019F80035FFBBE0012905D14FF400615E48FFF7D0
:101A080045FF04E04FF400615C48FFF727FFADE0B5
:101A1800012905D14FF010015948FFF737FF04E0BD
:101A28004FF010015748FFF719FF9FE0012905D132
:101A38004FF020015248FFF729FF04E04FF0200142
:101A48005048FFF70BFF91E0012905D14FF08001C5
:101A58004B48FFF71BFF04E04FF080014948FFF7B0
:101A6800FDFE83E0012905D14FF040014448FFF70E
:101A78000DFF04E04FF040014248FFF7EFFE75E02C
:101A8800012905D14FF480613F48FFF7FFFE04E0CC
:101A98004FF480613D48FFF7E1FE67E0012905D179
:101AA8004FF400513448FFF7F1FE04E04FF40051C1
:101AB8003248FFF7D3FE59E0012905D14FF0040160
:101AC8003348FFF7E3FE04E04FF004013148FFF725
:101AD800C5FE4BE0012905D14FF008012C48FFF75E
:101AE800D5FE04E04FF008012A48FFF7B7FE3DE0B5
:101AF800012905D14FF480712548FFF7C7FE04E09E
:101B08004FF480712348FFF7A9FE2FE0012905D182
:101B18004FF400711E48FFF7B9FE04E04FF400715E
:101B28001C48FFF79BFE21E0012020E000283FF43D
:101B380053AF01283FF45EAF02283FF469AF032892
:101B48003FF474AF04283FF47FAF05283FF48AAF11
:101B580006283FF495AF0728A0D00828ACD009285C
:101B6800B8D00A28C4D00B28D0D0DDE70020DDF893
:101B780000E001B0704700BF50F00F4040F00F4048
:101B880090F00F4080F00F4010F00F4000F00F4031
:081B9800D0F00F40C0F00F4037
:1018940081B0CDF800E0034AFFF75EFCDDF800E01C
:0818A40001B0704704010200CD
:10115C0081B0CDF800E0FFF761FEDDF800E001B0F2
:02116C007047CA
:100E280083B0CDF800E006460C4615463046FFF77D
:100E38005BFB40F2FF1306EA030080090026224606
:100E48002946202E39D24FF0010303FA06F402EAAC
:100E580004031F46A3422ED104031A4B1C19B300E6
:100E6800E51801952C68184B04EA03032B60174B0F
:100E780001EA0304019B1B6843EA0404019B1C600C
:100E880001F48033B3F5803F15D08401104B1B1952
:100E98001433029301F400333BB1FC43029B1B68FB
:100EA80003EA0404029B1C6005E0029B1B6843EAFA
:100EB8000704029B1C60761CC3E7DDF800E003B062
:100EC800704700BF009004400000FFFFFFFF0000D4
:040ED80000F00F40D7
:1004F00081B040F2FF1100EA01018909084600F2CB
:1005000009024FF0010101FA02F20449096841EAC7
:10051000020202490A6001B0704700BF38800440FF
:1018640081B0CDF800E0034AFFF776FCDDF800E034
:0818740001B0704704010400FB
:101BE40081B0CDF800E0A9E0012905D14FF008014A
:101BF4006548FFF74DFE04E04FF008016348FFF726
:101C04002FFEBBE0012905D14FF400215E48FFF708
:101C14003FFE04E04FF400215C48FFF721FEADE0F5
:101C2400012905D14FF008015948FFF731FE04E0BE
:101C34004FF008015748FFF713FE9FE0012905D133
:101C44004FF020015248FFF723FE04E04FF020013B
:101C54005048FFF705FE91E0012905D14FF08001BE
:101C64004B48FFF715FE04E04FF080014948FFF7A9
:101C7400F7FD83E0012905D14FF040014448FFF707
:101C840007FE04E04FF040014248FFF7E9FD75E02C
:101C9400012905D14FF400613F48FFF7F9FD04E045
:101CA4004FF400613D48FFF7DBFD67E0012905D1F2
:101CB4004FF480713448FFF7EBFD04E04FF480717A
:101CC4003248FFF7CDFD59E0012905D14FF48031A9
:101CD4002F48FFF7DDFD04E04FF480312D48FFF776
:101CE400BFFD4BE0012905D14FF400312848FFF72F
:101CF400CFFD04E04FF400312648FFF7B1FD3DE08D
:101D0400012905D14FF480712548FFF7C1FD04E096
:101D14004FF480712348FFF7A3FD2FE0012905D17B
:101D24004FF400711E48FFF7B3FD04E04FF4007157
:101D34001C48FFF795FD21E0012020E000283FF436
:101D440053AF01283FF45EAF02283FF469AF032884
:101D54003FF474AF04283FF47FAF05283FF48AAF03
:101D640006283FF495AF0728A0D00828ACD009284E
:101D7400B8D00A28C4D00B28D0D0DDE70020DDF885
:101D840000E001B0704700BF50F00F4040F00F403A
:101D940090F00F4080F00F4010F00F4000F00F4023
:081DA400D0F00F40C0F00F4029
:101DCC0081B0CDF800E0A9E0012905D14FF0400128
:101DDC006548FFF759FD04E04FF040016348FFF7F9
:101DEC003BFDBBE0012905D14FF480615E48FFF754
:101DFC004BFD04E04FF480615C48FFF72DFDADE036
:101E0C00012905D14FF004015948FFF73DFD04E0CD
:101E1C004FF004015748FFF71FFD9FE0012905D142
:101E2C004FF020015248FFF72FFD04E04FF0200146
:101E3C005048FFF711FD91E0012905D14FF08001C9
:101E4C004B48FFF721FD04E04FF080014948FFF7B4
:101E5C0003FD83E0012905D14FF040014448FFF711
:101E6C0013FD04E04FF040014248FFF7F5FC75E02C
:101E7C00012905D14FF010013F48FFF705FD04E0A3
:101E8C004FF010013D48FFF7E7FC67E0012905D151
:101E9C004FF080013448FFF7F7FC04E04FF080016D
:101EAC003248FFF7D9FC59E0012905D14FF48031B4
:101EBC002F48FFF7E9FC04E04FF480312D48FFF781
:101ECC00CBFC4BE0012905D14FF400312848FFF73A
:101EDC00DBFC04E04FF400312648FFF7BDFC3DE08D
:101EEC00012905D14FF480712548FFF7CDFC04E0A2
:101EFC004FF480712348FFF7AFFC2FE0012905D187
:101F0C004FF400711E48FFF7BFFC04E04FF4007162
:101F1C001C48FFF7A1FC21E0012020E000283FF441
:101F2C0053AF01283FF45EAF02283FF469AF03289A
:101F3C003FF474AF04283FF47FAF05283FF48AAF19
:101F4C0006283FF495AF0728A0D00828ACD0092864
:101F5C00B8D00A28C4D00B28D0D0DDE70020DDF89B
:101F6C0000E001B0704700BF50F00F4040F00F4050
:101F7C0090F00F4080F00F4010F00F4000F00F4039
:081F8C00D0F00F40C0F00F403F
:1023880081B0CDF800E00DE00846FFF70BFD10E046
:102398000846FFF7FDFA0CE00846FFF7E9FA08E0FF
:1023A800012006E00028EFD00128F1D00228F3D060
:0A23B800F6E7DDF800E001B0704721
:101DAC0081B0CDF800E0016808460449FFF70AFD50
:101DBC000020DDF800E001B0704700BF202E0000CD
:1017D00081B0CDF800E00A4601460348FFF7C8FC97
:0C17E000DDF800E001B07047006006403A
:101170008AB0CDF800E0504B984210D100244F4B7C
:101180001C60012464B24E4B1C604E4C4E4B1C60E4
:101190004E4C4F4B1C604F4C4F4B1C6026E04F4B4E
:1011A000984210D100244E4B1C60012464B24D4B78
:1011B0001C604D4C444B1C604C4C454B1C604C4CD3
:1011C000454B1C6012E04B4B98420FD100244A4B18
:1011D0001C60012464B2494B1C60494C3A4B1C60B2
:1011E000484C3B4B1C60484C3B4B1C6001910290AF
:1011F0001046FFF773FE06AB1846FFF75DFD029839
:1012000001994FF0FF39002740F200080022022A1E
:1012100037D8B9F1000F34D001231BB203FA02F51D
:101220002DB20026322E28D2F400384B1B191B1D7C
:101230001B6805FB03F4079BB3FBF4F3049399428B
:1012400003D9049BCB1A039302E0049B5B1A03931C
:10125000039B0593039B4B450BD21746F4002B4B86
:101260001B19D3F80080059C059B002B00D105E0DD
:1012700000E04C46761CA146D4E74C46521CA146E1
:10128000C5E7441CBB0143EA08032370851C012405
:101290002B7864F3C7132B70851C01242B7864F31F
:1012A00086132B70851D01242B7864F345132B7056
:1012B000DDF800E00AB07047006006404000FF1F04
:1012C000980690423D1000008401FF1FD9100000D5
:1012D0008801FF1F3D1500008C01FF1F00700640B4
:1012E0004400FF1F9C0690422510000001100000E2
:1012F0001511000000600E404800FF1F18059042C5
:101300007910000055100000391100004C2B00002E
:100CB80081B0CDF800E00446FFF75AFC40F2E83175
:100CC80000FB01F3194909680A0F1849096801F07E
:100CD8007061090EC8B21549096801F47001090D5F
:100CE800CDB21249096801F47021090CCEB2D1B213
:100CF800491C09B259430F462360221D411C09B201
:100D0800B7FBF1F1116004F20802691C09B2B7FBE4
:100D1800F1F1116004F20C02711C09B2B7FBF1F198
:100D28001160DDF800E001B0704700BF4480044066
:0C05780001480068704700BF7401FF1FBD
:100EDC0081B0CDF800E040F2000C83464FEA8C0163
:100EEC000BEB01010968B1F1FF3F12D00BF134019A
:100EFC004FEA8C03C91809680A460BEB0301096811
:100F0C0008461146FFF706FB0CF1010C1FFA8CFC8E
:0A0F1C00E4E7DDF800E001B07047E3
:1005200082B0CDF800E080464FEA581202F0070290
:10053000914608F01F04A24693010D4AD3184FF0CC
:100540000102A240019218460A46019900F006FEF7
:100550004FEA0933074AD3184FEA8A029C1808F475
:10056000E06322681A432260DDF800E002B07047C1
:0805700000F00F400090044070
:1019980081B0CDF800E0016808460449FFF714FF5C
:1019A8000020DDF800E001B0704700BF202E0000E5
:1019780081B0CDF800E0016808460449FFF724FF6C
:101988000020DDF800E001B0704700BF202E000005
:10227C0081B0CDF800E011E00846FFF785FE16E0CE
:10228C000846FFF737FF12E00846FFF721FF0EE084
:10229C000846FFF741FF0AE0012008E00028EBD0D8
:1022AC000128EDD00228EFD01028F1D0F4E7DDF8AA
:0622BC0000E001B07047D4
:101F940081B0CDF800E0FFF727FC044A04490A6049
:101FA4000020DDF800E001B0704700BF75160000A6
:041FB4005801FF1FB2
:1017EC0081B0CDF800E003460A48FFF7CBFD0A4A6A
:1017FC0040F2000104B402B440F20002194640F277
:10180C0000030448FFF78EFD02B0DDF800E001B0E4
:0C181C00704700BF00C00640DC2C00003C
:1013900081B0304988420CD12F4A30490A60304A26
:1013A00030490A60304A31490A60314A31490A609D
:1013B0004EE0314988420CD1304A28490A60304A0F
:1013C00028490A602F4A29490A602F4A29490A6098
:1013D0003EE02E4988420CD12D4A20490A602D4A10
:1013E00020490A602C4A21490A602C4A21490A6096
:1013F0002EE02B4988420CD12A4A18490A602A4A11
:1014000018490A60294A19490A60294A19490A6093
:101410001EE0284988420CD1274A10490A60274A11
:1014200010490A60264A11490A60264A11490A6091
:101430000EE0254988420BD1244A08490A60244A13
:1014400008490A60234A09490A60234A09490A608F
:1014500001B0704700A00640011700009001FF1F77
:10146000C11000009401FF1F911000009801FF1FA0
:10147000A91000009C01FF1F00B00640E516000007
:10148000E90F0000590F0000410F000000C00640A6
:1014900075160000290F0000710F0000B90F000041
:1014A00000D0064019160000890F0000A10F0000AF
:1014B000D10F000000A00E40FD150000FD1000003F
:1014C0000D150000F514000000B00E405916000084
:0C14D000DD14000025150000611500006F
:1013300085B0CDF800E001900291ADF80C20ADF839
:101340001030BDF81440ADF814400698FFF7C6FD04
:101350000198FFF73BFA02990198FFF781FABDF86F
:101360000C100198FFF776FCBDF810100198FFF7FC
:1013700081FCBDF814100198FFF798FC0198FFF765
:1013800049FC0198FFF74EFCDDF800E005B070471E
:1007CC0081B01849884204D1012252B216490A60FC
:1007DC0026E01649884204D1012252B214490A601B
:1007EC001EE01449884204D1012252B212490A6017
:1007FC0016E01249884204D1012252B210490A6013
:10080C000EE01049884204D1012252B20E490A600E
:10081C0006E00E49884203D1012252B20C490A600B
:10082C0001B0704700A00640A806904200B00640F8
:10083C00AC06904200C00640B006904200D0064084
:10084C00B406904200A00E402805904200B00E4025
:04085C002C05904295
:1008600085B0CDF800E08046894601AA104600F028
:1008700023FA164A904503D0154A904500D001E06E
:10088000019800E002984FEA0912B0FBF2F291B22F
:1008900092B2130A9BB298F800201A4388F80020FD
:1008A00008F10103CAB21A7043014FEA0912B3FBFF
:1008B000F2F34A0192B29A1AD0B208F10A031A78F6
:1008C00002431A70DDF800E005B0704700A0064052
:0408D00000B006402E
:100C540081B0841C23784FF6EF7212B203EA0202C9
:100C64002270841C0B0122781A43227001B0704751
:100C740081B001F0020262B1841C01F00203227807
:100C84001A432270841C01F0010322781A43227053
:100C940007E0841C23784FF6FD7212B203EA0202C5
:060CA400227001B0704750
:0C0CAC0081B002780A43027001B070476A
:100C140081B0C21C117841F00401117001B0704719
:100C240081B0C21C117841F00801117001B0704705
:1021000081B0CDF800E0FFF78FFB044A04490A6074
:102110000020DDF800E001B0704700BF1916000094
:042120005801FF1F44
:1018280081B0CDF800E003460A48FFF7ADFD0A4A4B
:1018380040F2000104B402B440F20002194640F23A
:1018480000030448FFF770FD02B0DDF800E001B0C6
:0C185800704700BF00D00640B42D000017
:1020DC0081B0CDF800E0FFF7A1FB044A04490A6087
:1020EC000020DDF800E001B0704700BF19160000B9
:0420FC005801FF1F69
:1021240081B0CDF800E0FFF733FB044A04490A60AC
:102134000020DDF800E001B0704700BF0117000087
:042144005801FF1F20
:1017940081B0CDF800E003460A48FFF7F7FD0A4A96
:1017A40040F2000104B402B440F20002194640F2CF
:1017B40000030448FFF7BAFD02B0DDF800E001B011
:0C17C400704700BF00A00640482D000048
:1025080081B0CDF800E05A220E490F48FFF772FF5C
:10251800FFF782FF402040F00800FFF74FFF0B480D
:102528000221FFF7F5FE40F6FE57C0F2277700BFFD
:1025380000BF7F1EFDD100BF00BF00BFDDF800E077
:1025480001B07047382F00008C2E00000000FF1FDC
:1023FC0081B0CDF800E00446054B1A700846FFF793
:10240C00EBFD2046FFF7D2FDDDF800E001B0704790
:04241C003E00FF1F60
:101FE400026806490A60011D0A6805490A6000F290
:101FF40008010A6803490A60704700BF6001FF1FB7
:082004006401FF1F6801FF1FCA
:101FB80000F230011C310A6805490A6000F2080184
:101FC8000A6804490A60011D0A6803490A607047E3
:0C1FD8007001FF1F5C01FF1F6C01FF1F68
:1024200081B0CDF800E0FFF74BFEFFF717FEF42078
:0C243000FFF72EFEDDF800E001B0704761
:1020C00081B0CDF800E00020034C2468A047DDF883
:0C20D00000E001B0704700BF5C01FF1F82
:0C18AC0001490860704700BF0808FE43B7
:0C187C0001490860704700BF2C08FE43C3
:0C18880001490860704700BF1010FE43CB
:0C17400001490860704700BF1410FE4310
:0C174C0001490860704700BF1C10FE43FC
:0C17280001490860704700BF1810FE4324
:0C17340001490860704700BF2800FE4318
:0C17580001490860704700BF3408FE43E0
:0C177C0001490860704700BF0818FE43D8
:0C17880001490860704700BF0C18FE43C8
:0C17640001490860704700BF2018FE43D8
:0C17700001490860704700BF2418FE43C8
:0C19540001490860704700BF0C08FE430A
:0C19240001490860704700BF4C08FE43FA
:0C193C0001490860704700BF0C10FE431A
:0C19480001490860704700BF1410FE4306
:0C19300001490860704700BF1C10FE4316
:0C196C0001490860704700BF1810FE43DE
:0C19600001490860704700BF2C00FE43E6
:0C19180001490860704700BF2008FE4332
:0C18D00001490860704700BF4010FE4353
:0C18DC0001490860704700BF4410FE4343
:0C18B80001490860704700BF2018FE4383
:0C18C40001490860704700BF2418FE4373
:0C19000001490860704700BF1808FE4352
:0C190C0001490860704700BF2808FE4336
:0C18E80001490860704700BF0810FE4373
:0C18F40001490860704700BF1410FE435B
:0C171C0001490860704700BF1C10FE432C
:0C15F00001490860704700BF1810FE435E
:0C159C0001490860704700BF1000FE43CA
:0C15A80001490860704700BF1C08FE43AA
:0C15CC0001490860704700BF4010FE435A
:0C15E40001490860704700BF4410FE433E
:0C15D80001490860704700BF2018FE4366
:0C15780001490860704700BF2418FE43C2
:10205C0081B0CDF800E00020094C2468A047FFF7C0
:10206C00A3FAFFF7A1FA0120054C2468A047FFF75B
:10207C0083FAFFF781FADDF800E001B0704700BF8A
:04208C006C01FF1FC5
:1015B40045F6FE17C0F2622700BF00BF7F1EFDD1B3
:0815C40000BF00BF00BF70472B
:1015840040F6FE07C0F23D0700BF00BF7F1EFDD13D
:0815940000BF00BF00BF70475B
:1020900082B0CDF800E001A90870FFF70DFB01AA9E
:1020A000064909780123C8B211460122FFF7F0FA68
:1020B000FFF768FADDF800E002B070473E00FF1F4E
:1016B80082B0CDF800E040F20004ADF80440064CDA
:1016C8002468A047BDF9041041EA000000B2DDF823
:0C16D80000E002B0704700BF6001FF1F7F
:10103C0081B0CDF800E00348FFF73CFDDDF800E09F
:08104C0001B07047006006408E
:100AC00084B0CDF800E04FF000024349884205D1E0
:100AD00042490C6842490968039115E0414988423E
:100AE00006D141490A6841490968039114460BE05F
:100AF0003F49884206D13F490A683F490968039146
:100B0000114600E011460C4601940290FFF712FED8
:100B10000298019C831C0122197862F34511197017
:100B2000C11C0A78C2F30011C9B1C31C0122197893
:100B300062F304111970811D0A78C2F3001129B102
:100B4000831D0122197862F304111970C31C01225C
:100B5000197862F3410119704FF6FF7038E02346AF
:100B6000019404460198E11C0A78C2F3400151B98E
:100B700040B123B90520039CA047012028E05A1E5C
:100B80001346FFE7EFE7A11D0A78C2F3001129B170
:100B9000A31D0122197862F304111970E31C0122CC
:100BA000197862F34101197005462346D91C0A7869
:100BB000C2F3400159B148B125B90520039CA047B3
:100BC000012005E0691E0A461546FFE7EEE7002012
:100BD000DDF800E004B07047006006404000FF1FF1
:100BE0007801FF1F007006404400FF1F7C01FF1FBB
:0C0BF00000600E404800FF1F8001FF1F46
:1007340082B0CDF800E04FF000021A49884205D19A
:1007440019490B6819490968019115E0184988424B
:1007540006D118490A6818490968019113460BE043
:100764001649884206D116490A6816490968019152
:10077400114600E011460B461D4604462046FFF78D
:1007840045FE50B943B11DB90720019CA04704E0C0
:10079400691E08460546FFE7F0E7DDF800E002B011
:1007A400704700BF006006404000FF1F7801FF1F34
:1007B400007006404400FF1F7C01FF1F00600E40D4
:0807C4004800FF1F8001FF1F28
:1004100081B0C11C0A78C2F3401181F00101C9B258
:06042000C8B201B07047F4
:1010240081B0CDF800E00348FFF748FDDDF800E0AB
:0810340001B070470070064096
:1010780081B0CDF800E00348FFF71EFDDDF800E081
:0810880001B0704700600E404A
:1010C00081B0CDF800E00348FFF798FDDDF800E0BF
:0810D00001B0704700A00640CA
:100BFC0081B0011D0A78C2F3401101B9F9E7C11D9A
:080C0C000978C8B201B070477D
:1010900081B0CDF800E00348FFF7D4FDDDF800E0B3
:0810A00001B0704700A00640FA
:0E0C440081B0011D0978C1F3401001B0704766
:1010A80081B0CDF800E00348FFF7C0FDDDF800E0AF
:0810B80001B0704700A00640E2
:0E0C340081B0011D0978C1F3801001B0704736
:100FE80081B0CDF800E00348FFF704FEDDF800E02B
:080FF80001B0704700B0064093
:100F580081B0CDF800E00348FFF770FEDDF800E04F
:080F680001B0704700B0064023
:100F400081B0CDF800E00348FFF774FEDDF800E063
:080F500001B0704700B006403B
:100F280081B0CDF800E00348FFF764FEDDF800E08B
:080F380001B0704700C0064043
:100F700081B0CDF800E00348FFF764FEDDF800E043
:080F800001B0704700C00640FB
:100FB80081B0CDF800E00348FFF738FEDDF800E027
:080FC80001B0704700C00640B3
:100F880081B0CDF800E00348FFF734FEDDF800E05B
:080F980001B0704700D00640D3
:100FA00081B0CDF800E00348FFF74CFEDDF800E02B
:080FB00001B0704700D00640BB
:100FD00081B0CDF800E00348FFF72CFEDDF800E01B
:080FE00001B0704700D006408B
:1010FC0081B0CDF800E00348FFF77AFDDDF800E0A1
:08110C0001B0704700A00E4085
:10150C0081B0CDF800E00348FFF796FBDDF800E072
:08151C0001B0704700A00E4071
:1014F40081B0CDF800E00348FFF79AFBDDF800E087
:0815040001B0704700A00E4089
:1014DC0081B0CDF800E00348FFF78AFBDDF800E0AF
:0814EC0001B0704700B00E4092
:1015240081B0CDF800E00348FFF78AFBDDF800E066
:0815340001B0704700B00E4049
:1015600081B0CDF800E00348FFF764FBDDF800E050
:0815700001B0704700B00E400D
:1016900082B0CDF800E040F20004ADF80440054C03
:1016A0002468A047BDF90440044320B2DDF800E0FF
:0816B00002B070476401FF1F46
:10153C0081B0CDF800E008B413460A46C1B20448A5
:10154C00FFF7C2F901B0DDF800E001B0704700BF51
:04155C0000600640E5
:1008D40087B0CDF800E005920246C8B20693079CA3
:1008E40007944FF000016C4CA24206D16B4C266871
:1008F4006B4C24680494314614E06A4CA24205D13E
:10090400694C2668694C246804940AE0684CA24245
:1009140006D1684C2168684C246804940E4600E0B3
:100924000E463146440001910292E1B21046FFF7AF
:1009340079FD029A019920B91046FFF721FE0020A3
:10094400A5E000273B46069CA34216D2059CE4186A
:100954002478019202910393E1B21046FFF762FDFD
:10096400039B0299019A20B91046FFF709FE002063
:100974008DE05C1C27463B46E5E7079C012C48D1EB
:100984000B461046C41C2578C5F3400464B141B13C
:1009940023B90420049CA047012078E05A1E144681
:1009A40000E01C462346EDE7861C0025347865F3F9
:1009B400451434700A46C41C2578C5F340045CB958
:1009C40039B122B90420049CA04701205FE0531EE2
:1009D40000E013461A46EEE7841D2578C5F300149B
:1009E4002CB1861D0125347865F304143470841DFC
:1009F4002578C5F380142CB1861D0125347865F360
:100A040086143470C61C0125347865F341043470AF
:100A14002AE0961C0125347865F3820434700B4671
:100A24001046C41C2578C5F3400464B941B123B908
:100A34000420049CA047012029E05A1E144600E02B
:100A44001C462346EDE7841D2578C5F300142CB11C
:100A5400861D0125347865F304143470C61C012501
:100A6400347865F3410434700A46C41C2578C5F310
:100A740040045CB139B122B90420049CA047012090
:100A840005E0531E00E013461A46EEE70020DDF8A9
:100A940000E007B0704700BF006006404000FF1F41
:100AA4007801FF1F007006404400FF1F7C01FF1FF8
:0C0AB40000600E404800FF1F8001FF1F83
:1004280082B0CDF800E04FF00003264A904205D193
:10043800254A1568254A1268019215E0244A904217
:1004480006D1244A1368244A126801921D460BE01B
:10045800224A904206D1224A1368224A126801921F
:100468001A4600E01A461546841C0123227863F3D5
:1004780004122270021D11702C462946C21C1378E2
:10048800C3F340025AB949B124B90420019CA047DA
:10049800012012E0621E13461C46FFE7EEE7C41C6B
:1004A8000123227863F341022270C21C1378C3F33C
:1004B800000282F00102D2B2D0B2DDF800E002B050
:1004C800704700BF006006404000FF1F7801FF1F13
:1004D800007006404400FF1F7C01FF1F00600E40B3
:0804E8004800FF1F8001FF1F07
:1005840084B0CDF800E04FF000023549884205D12F
:1005940034490C6834490968039115E033498842A9
:1005A40006D133490A6833490968039114460BE0BC
:1005B4003149884206D131490A68314909680391B1
:1005C400114600E011460C46831C0022197862F3A0
:1005D40045111970831C0022197862F304111970F3
:1005E4000194029000F0A4F80298019C2346C11CD7
:1005F4000A78C2F3400151B944B123B90620039CDF
:10060400A047012027E05A1E1346FFE7EFE7811DAC
:100614000A78C2F3801129B1831D0122197862F38B
:1006240086111970C31C0122197862F341011970F3
:100634002346C11C0A78C2F3400159B14CB123B915
:100644000620039CA047012005E0591E0A461346D4
:10065400FFE7EEE70020DDF800E004B0704700BFDC
:10066400006006404000FF1F7801FF1F0070064035
:100674004400FF1F7C01FF1F00600E404800FF1F65
:040684008001FF1FD3
:1011140081B0CDF800E008B413460A46C1B20448D1
:10112400FFF7D6FB01B0DDF800E001B0704700BF67
:041134000070064001
:1011380081B0CDF800E008B413460A46C1B20448AD
:10114800FFF7C4FB01B0DDF800E001B0704700BF55
:0411580000600E40E5
:1023C40082B0CDF800E001AA01211170511C0870FF
:1023D400FFF770F901AA074909780123C8B2114629
:1023E4000222FFF753F9FFF7CBF8DDF800E002B063
:0823F400704700BF3E00FF1F0F
:1023180083B0CDF800E0024610460D228DF8082063
:102328000A228DF809201FE0FFF742FB23E002781C
:102338002AB10190FFF73CFB0198401CF7E71AE02F
:1023480002782AB10190FFF733FB0198401CF7E7A8
:1023580002AA1046FFF72CFB0DF109021046FFF701
:1023680027FB08E0062007E00029DDD00129DED0A0
:102378000229E5D0F6E70020DDF800E003B0704759
:1019B80081B0CDF800E00178CCB2A0B2034C246825
:1019C800A0470020DDF800E001B070475801FF1F74
:1017000081B0CDF800E081B20348FFF701FEDDF8BB
:0C17100000E001B0704700BF00A00640E0
:1013100081B0ADF800100146BDF800000A1D137839
:10132000C3F3C01202B9F9E7CA1D107001B07047CB
:1016E40081B0CDF800E081B20348FFF70FFEDDF8CA
:0C16F40000E001B0704700BF00B00640ED
:1016740081B0CDF800E081B20348FFF747FEDDF802
:0C16840000E001B0704700BF00C006404D
:1016180081B0CDF800E081B20348FFF775FEDDF830
:0C16280000E001B0704700BF00D0064099
:1015FC0081B0CDF800E081B20348FFF783FEDDF83F
:0C160C0000E001B0704700BF00A00E40DD
:1016580081B0CDF800E081B20348FFF755FEDDF810
:0C16680000E001B0704700BF00B00E4071
:10248C0081B0CDF800E01648FFF758FE14480088DC
:10249C001449FFF7B5FE14480121FFF737FF01215E
:1024AC001048FFF733FF11480221FFF72FFFFFF70A
:1024BC0063F80F4800880B49FFF7A2FE0D48012175
:1024CC00FFF724FF01210748FFF720FF0A480221EC
:1024DC00FFF71CFFFFF768F8DDF800E001B070476C
:1024EC004C00FF1F5600FF1F1700FF1F2400FF1F8B
:0C24FC004E00FF1F2A00FF1F3800FF1FCA
:1021480085B0CDF800E0054602AA0221117001957C
:10215800FFF722FD019D00F00801C9B200294BD00C
:102168000195FFF7A5FA02AA254909780023C8B204
:1021780011460122FFF788FA0DF109022049097872
:102188000123C8B211460822FFF750FA019DFFF754
:10219800F5F90DF109042178298029880902298097
:1021A800611C0A78298811432980AA1CA11C097876
:1021B8001180AA1C118809021180AB1CE11C0A7845
:1021C8001988114319802A1D211D09781180AA1D1B
:1021D800611D0978118005F20802A11D0978118096
:1021E80005F2080211880902118005F20803E11DB1
:1021F8000A78198811431980DDF800E005B07047A6
:042208003E00FF1F76
:101BA00082B0CDF800E001A900200870FFF784FDA5
:101BB00001A90B48007800230122FFF769FD0DF110
:101BC00005010748007801230122FFF733FDFFF7E5
:101BD000D9FC0DF105000078DDF800E002B0704797
:041BE0003E00FF1FA5
:1016340082B0CDF800E040F20004ADF80440044C60
:101644002468A047BDF90400DDF800E002B070474B
:041654006801FF1F0B
:1010D80081B0CDF800E008B413460A46C1B204480E
:1010E800FFF726FE01B0DDF800E001B0704700BF51
:0410F800006006404E
:100D380085B0CDF800E08DF8041001469DF8040058
:100D480003920493059C05944400A4B244F0010462
:100D580001910846E1B2FFF763FB019918B908460B
:100D6800FFF70CFC58E08E1C0025347865F304145A
:100D78003470049C012C06D18E1C0125347865F34F
:100D8800C304347005E08E1C0025347865F3C30471
:100D9800347001910846FFF773FC0199049C621EA8
:100DA800002A34DB15E0019102920846FFF7E6FBC2
:100DB800029A019912E08E1C0125347865F3C30468
:100DC80034700BE08E1C0025347865F3C30434704E
:100DD80004E0002AE7D0012AEDD0F3E73AB90C1D68
:100DE8002578039C2570039C641C03940BE00191F7
:100DF80002920846FFF744FC029A0199039C20706E
:100E0800039C641C0394541E23461A46C8E7059C99
:100E180014B90846FFF750FEDDF800E005B070474A
:1006880082B0CDF800E04FF000021F49884205D142
:100698001E490B681E490968019115E01D498842E9
:1006A80006D11D490A681D490968019113460BE0E6
:1006B8001B49884206D11B490A681B4909680191F0
:1006C800114600E011460B46011D0C781D46C11C61
:1006D8000A78C2F3400159B94BB125B90320019CEE
:1006E800A04701200BE0691E0A461546FFE7EEE722
:1006F800C31C0122197862F341011970E0B2DDF8D8
:1007080000E002B0704700BF006006404000FF1FD5
:100718007801FF1F007006404400FF1F7C01FF1F87
:0C07280000600E404800FF1F8001FF1F12
:1010000081B0CDF800E008B413460A46C1B20448E6
:10101000FFF792FE01B0DDF800E001B0704700BFBD
:041020000070064016
:1010540081B0CDF800E008B413460A46C1B2044892
:10106400FFF768FE01B0DDF800E001B0704700BF93
:0410740000600E40CA
:10220C0081B0CDF800E00E46002183B2002805DA3B
:10221C000121404280B280B28FB201E098B28FB2FD
:10222C003146FFF7EDFE06213446B8B2002908D935
:10223C0063184A1E92B2A21812781A70491E89B2FB
:10224C00F4E72022227070B1002081B2204642189F
:10225C001278202A02D1491C89B2F8E74A1E92B2A0
:0E226C0083182D221A70DDF800E001B07047D3
:10200C0081B00A4681B200208DB21146052805D256
:10201C000B1820221A70401CC0B2F7E70B180022D4
:10202C001A70401EC0B20C180A23B5FBF3F203FB66
:10203C00125292B2303222700A22B5FBF2F292B2F4
:10204C0095B202B902E0401EC0B2ECE701B0704795
:1026200090B072B6974801909748029097480390EF
:1026300097480490974805909748069097480790C8
:10264000974808909748099097480A9097480B90A8
:1026500097480C90974998480D9098480E900D987F
:1026600000F007000F9001F0010050B94CF220502B
:10267000934908804DF62810088040F2D211914805
:1026800001809148007800F0010050B18F48007837
:1026900000F0080020B18D49087840F0080008706B
:1026A00021E08B48006840F000518948016089486A
:1026B000006800F48070B0B9864801686FF470500B
:1026C00001EA000040F440718248016081480068DE
:1026D00040F480717F4801607E4801686FF40070AB
:1026E00001407C480160AA217B4801700D9800F0F0
:1026F000100060B9794801786FF0600001407748B8
:10270000017077480078012800D0FAE71CE00D98A6
:1027100000F01000C0B10E997248814208D96021C2
:102720006E4801706E480078802800D0FAE70BE010
:102730006A4801786FF0600001406848017068489D
:102740000078012800D0FAE70499674801606748DB
:1027500001686FF440200140029800F440200143DA
:1027600062480160624801686FF44030014003989C
:1027700000F4403001435E4801600F9830B10F987B
:10278000012803D00F98022800D061E0019800F0E2
:10279000800050B9089800F0400028B10B9800F074
:1027A0000300002800D100E015E05248006840F422
:1027B00000715048016050480168504801404E483F
:1027C0000160069800F0040028B14D4801684B48AC
:1027D00001404B4801600A994A48017005994A48EE
:1027E0000170059800F0040038B14848007800F006
:1027F0001000002800D1F8E705E04448007800F018
:10280000100000B1F9E74248007800F0BF01C9B2FA
:10281000069800F0FD0001433D480170079800F064
:10282000E0013C48007800F01F0001433948017086
:102830000199394801700B99384801700F980228A6
:1028400005D13348007840F0020131480170B8E00A
:10285000019800F0800020B90B9800F0030000B14F
:1028600065E02448006840F4007122480160224875
:1028700001682248014020480160069800F00400E9
:1028800000F04EB80000000000000C000000010045
:1028900000001401220000002400000000000000DD
:1028A00002000000460000000000000000000000E0
:1028B000000000000000000007000000C0D401007C
:1028C0000E2005400020054000F0074002D00740E0
:1028D0003C80044010D0034000E0074001E0074086
:1028E00003E0074080380100448004400070044049
:1028F000048004403880044048900440FFF8FFFE04
:102900004C90044008400640004006400640064007
:102910000140064003400640005006400C4006407F
:1029200028B17A4801687A480140784801600A99DC
:10293000784801707848007800F0BF01C9B2069865
:1029400000F0FD0001437448017001997348017063
:102950000B99734801700F98072805D1059840F02E
:1029600080017048017002E005996E480170069878
:1029700000F0040048B10B9800F0030028B96A4841
:10298000007800F0020000B9F9E7059800F00400B3
:1029900038B16548007800F01000002800D1F8E751
:1029A00005E06148007800F0100000B1F9E70798F1
:1029B00000F0E0015D48007800F01F0001435B4833
:1029C0000170089800F0BF0159480170099800F0A3
:1029D000BF0158480170089800F0400028B15448E1
:1029E000007840F04001524801700F98052806D148
:1029F0004948007840F00201474801701BE00F98F9
:102A0000062803D00F98072800D014E04948007822
:102A100040F04001474801704348007800F0400012
:102A200000B9F9E70F98072805D13E48007800F073
:102A30003F013C4801700F9818B10F98032800D04F
:102A40002CE03948007800F00C0000B1F9E73A4872
:102A5000006840F00101384801604FF0000137483C
:102A600001604FF08001364801604FF005013548A4
:102A700001604FF00101324801603148006800F008
:102A8000800000B9F9E700212D4801602A4801685B
:102A90006FF001000140284801602AE00F980128EA
:102AA00003D00F98022800D007E01F48007800F0FC
:102AB0000C00042800D0F8E71BE00F98042806D08B
:102AC0000F98062803D00F98052800D007E0164875
:102AD000007800F00C00082800D0F8E709E00F9813
:102AE000072806D11048007800F00C000C2800D010
:102AF000F8E7154801686FF00F0001400C9800F0EE
:102B00000F0001431048016010B070474C90044022
:102B1000FFF8FFFE08400640014006400050064016
:102B20000C40064000400640064006400340064078
:102B30000440064005400640388004400800044038
:0C2B4000000004400400044048800440F1
:1025E80081B002490248016001B07047C0D40100BF
:0425F8007401FF1F4C
:0825B40081B0FEE701B07047A1
:1025BC0081B072B60849086840F47000086000BF2A
:1025CC0000BF00BF00BFF1EE100A40F44000E1EE86
:0C25DC00100A62B601B0704788ED00E004
:102F480000B5DFF824B0DFF824A0DFF824C0FFF7CD
:102F580071FADFF820B0DFF820A0DFF820C0FFF713
:102F680069FA00BD704700BF0000FF1F3E00FF1F49
:102F7800EC2E00004000FF1F4C00FF1F2C2F00000C
:102FE40000B5DFF810B0DFF810A0FFF72FFA00BD2E
:0C2FF400704700BF0000FF1FA001FF1F7E
:100400000000000000000000FFFFFFFF02FDFFFFF3
:102B4C00000000001400000001000000160000004E
:102B5C000200000018000000030000001A00000032
:102B6C00040000001C000000050000001E00000016
:102B7C0009000000200000000600000022000000F8
:102B8C000A000000240000000700000028000000DC
:102B9C000C0000002C0000001000000030000000B1
:102BAC00110000003800000012000000400000007E
:102BBC000F0000004400000013000000480000005B
:102BCC001400000050000000150000005800000028
:102BDC0019000000600000001600000068000000F2
:102BEC001A000000700000001700000080000000B8
:102BFC001C000000900000001D000000A000000060
:102C0C001E000000C000000022000000E0000000D8
:102C1C001F000000F0000000230000000001000075
:102C2C0024000000200100002500000040010000ED
:102C3C0026000000800100002A000000C0010000F6
:102C4C0027000000E00100002B0000000002000043
:102C5C002C000000400200002D000000800200004B
:102C6C002E00000000030000320000008003000072
:102C7C002F000000C003000033000000000400001F
:102C8C003400000080040000350000000005000046
:102C9C0036000000000600003A00000000070000AB
:102CAC0037000000800700003B0000000008000017
:102CBC003C000000000900003D000000000A00007C
:102CCC003E000000000C00003F000000000F000060
:102CDC006303000062030000FFFFFFFF0000000021
:102CEC0000000000000000000000000000000000D8
:102CFC0000000000000000000000000000000000C8
:102D0C00000000000000080000000800FFFFFFFFAB
:102D1C0000000000000000000000000000000000A7
:102D2C000000000000000000000000000000000097
:0C2D3C000000000000000000000000008B
:102D48003103000030030000FFFFFFFF0000000018
:102D5800000000000000000000000000000000006B
:102D6800000000000000000000000000000000005B
:102D7800000000000000080000000800FFFFFFFF3F
:102D8800000000000000000000000000000000003B
:102D9800000000000000000000000000000000002B
:0C2DA8000000000000000000000000001F
:102DB4005103000050030000FFFFFFFF000000006C
:102DC40000000000000000000000000000000000FF
:102DD40000000000000000000000000000000000EF
:102DE400000000000000080000000800FFFFFFFFD3
:102DF40000000000000000000000000000000000CF
:102E040000000000000000000000000000000000BE
:0C2E1400000000000000000000000000B2
:102E20006802000069020000FFFFFFFF00000000D1
:102E30000000000000000000000000000000000092
:102E40000000000000000000000000000000000082
:102E5000000000000000080000000800FFFFFFFF66
:102E60000000000000000000000000000000000062
:102E70000000000000000000000000000000000052
:0C2E800000000000000000000000000046
:102E8C00AD1800007D1800008918000041170000E3
:102E9C004D170000291700003517000059170000C6
:102EAC007D170000891700006517000071170000DE
:102EBC00FFFFFFFFFFFFFFFFFFFFFFFFFFFFFFFF16
:102ECC00FFFFFFFFFFFFFFFFFFFFFFFFFFFFFFFF06
:102EDC00FFFFFFFFFFFFFFFFFFFFFFFFFFFFFFFFF6
:102EEC002D2D2D2D2D2D2D496E697420646F6E6541
:102EFC002D2D2D2D2D2D00434F322076616C7565B7
:042F0C00203A200047
:062F1000202070706D002E
:0E2F160054564F432076616C7565203A2000BA
:062F240020207070620025
:042F2C0000000000A1
:042F3000000000009D
:042F34000000000099
:0C2F38003D1000003D150000D910000005
:042F4400A086010062
:00000001FF
