:1000000021EF0FF00000000000EF00F00000000002
:0A0010000000000000000000F3D71C
:0E001C000101DCB102D08B9801D08B8812005C
:0E002A000101DCB102D08B9601D08B86120052
:0E0038000101DCB102D08D9601D08D86120040
:0E0046000101DCB102D0899401D0898412003E
:0E0054000101DCB102D08B9C01D08B8C12001C
:0E0062000101DCB102D08B9401D08B8412001E
:0E0070000101DCB102D08B9A01D08B8A120004
:0E007E000101DCB102D08B9E01D08B8E1200EE
:0E008C000101DCB102D08A9201D08A821200FA
:0E009A000101DCB102D08D9401D08D841200E2
:0E00A8000101DCB102D08F9201D08F821200D4
:0E00B6000101DCB102D08F9401D08F841200C2
:0E00C4000101DCB102D08B9801D08B881200B4
:0E00D2000101DCB102D08B9601D08B861200AA
:0E00E0000101DCB102D08A9401D08A841200A2
:0E00EE000101DCB102D08B9801D08B8812008A
:0E00FC000101DCB102D08B9601D08B86120080
:0E010A000101DCB102D08F9001D08F80120075
:0E0118000101DCB102D08B9A01D08B8A12005B
:0E0126000101DCB102D08B9801D08B88120051
:0E0134000101DCB102D08B9601D08B86120047
:0E0142000101DCB102D08B9201D08B82120041
:0E0150000101DCB102D08B9A01D08B8A120023
:0E015E000101DCB102D08D9001D08D80120025
:10016C000F0121B302D00000FBD7DCC11CFF120031
:0E017C00ACB202D00000FCD7DCC1ADFF120017
:0E018A000101DCB102D08B9001D08B801200FD
:0E0198000101DCB102D0899001D089801200F3
:0E01A6000101DCB102D08A9001D08A801200E3
:0E01B4000101DCB102D08D9201D08D821200CB
:0E01C2000101DCB102D0899801D089881200B9
:0E01D0000101DCB102D08B9801D08B881200A7
:0E01DE000101DCB102D08B9601D08B8612009D
:0E01EC000101DCB102D0899201D0898212009B
:0E01FA000101DCB102D08B9C01D08B8C120075
:0E0208000101DCB102D08B9E01D08B8E120062
:0E0216000101DCB102D08B9801D08B88120060
:0E0224000101DCB102D08B9601D08B86120056
:10023200F250026EF29E0500FF6A0150FE6E0050FF
:08024200FD6E02BEF28E1200F7
:10024A0068B409D01F0E6614016E0150000A03E15A
:0A025A00010E006E01D0006A1200D0
:10026400C7B409D01F0EC514016E0150000A03E182
:0A027400010E006E01D0006A1200B6
:0A027E00000EA4BA010E006E12007B
:0C028800000E0F0121B3010E006E1200E9
:0A029400000E80B0010E006E120093
:0A029E00000E82B6010E006E120081
:0A02A800000E84B0010E006E12007B
:0A02B200000E82B0010E006E120073
:1002BC0057C0D8F158C0D9F159C0DAF15AC0DBF1A6
:1002CC000101D66BD76BD751120802E1D6518E08BB
:1002DC0008E3B5DF005201E004D00101D64BD72B67
:1002EC00F2D70101120ED75D02E18F0ED65D03E34A
:1002FC007B0E006E24D0668066A020D0575058101C
:10030C0059105A101AE0D851D911DA11DB110EE13B
:10031C0063C0E1FF64C0E2FF050EE66E61C000F051
:10032C0062C001F080DF010E006E09D0010E0101E8
:10033C00D85F000ED95BDA5BDB5BDED7006A12009C
:0A034C00000E82BA010E006E1200CE
:0A035600000E82B4010E006E1200CA
:10036000AECF01F0ABA202D0AB98AB8801C000F0D9
:02037000120079
:100372001DCF01F00F0122A302D02299228901C0D0
:0403820000F0120075
:0A038600000EACB2010E006E120072
:0A039000000E9EBA010E006E12006E
:0A039A00000E80B8010E006E120084
:0A03A400000E80B2010E006E120080
:0A03AE00000E82B8010E006E12006E
:0A03B800000E82B8010E006E120064
:0A03C200000E82B6010E006E12005C
:0A03CC00000E84B2010E006E120054
:0A03D600000E82B6010E006E120048
:0A03E000000E82B2010E006E120042
:0A03EA00000E82BA010E006E120030
:0A03F400000E82B8010E006E120028
:0A03FE00000E82BC010E006E12001A
:0A040800000E82BE010E006E12000D
:0A041200000E81B0010E006E120012
:0A041C00000E82B8010E006E1200FF
:100426002FC0D8F130C0D9F131C0DAF132C0DBF1DA
:100436009E96C5869EB61FD02F50301031103210B2
:1004460019E00101D851D911DA11DB110CE15DC0B7
:10045600E1FF5EC0E2FF030EE66E5BC000F05CC02B
:1004660001F0E4DE08D0010E0101D85F000ED95B71
:10047600DA5BDB5BDFD70101C9CFD7F1D651000AC2
:1004860002E1C58A01D0C59A9E96C5882FC0D8F1CB
:1004960030C0D9F131C0DAF132C0DBF19EB61FD0DF
:1004A6002F5030103110321019E00101D851D911F6
:1004B600DA11DB110CE15DC0E1FF5EC0E2FF030E65
:1004C600E66E5BC000F05CC001F0B0DE08D0010E45
:1004D6000101D85F000ED95BDA5BDB5BDFD7D7C1E2
:0404E60000F0120010
:1004EA009E96D6C1C9FF2FC0D7F130C0D8F131C00E
:1004FA00D9F132C0DAF1C7A421D02F50301031100F
:10050A0032101BE00101D751D811D911DA110EE1CD
:10051A005DC0E1FF5EC0E2FF040EE66E5BC000F064
:10052A005CC001F081DE010E006E3AD0010E0101BD
:10053A00D75F000ED85BD95BDA5BDDD72FC0D7F166
:10054A0030C0D8F131C0D9F132C0DAF19EB621D02B
:10055A002F503010311032101BE00101D751D81141
:10056A00D911DA110EE15DC0E1FF5EC0E2FF040EAF
:10057A00E66E5BC000F05CC001F056DE010E006E54
:10058A000FD0010E0101D75F000ED85BD95BDA5B91
:10059A00DDD7C5BC02D0006A03D0C584020E006E46
:0205AA0012003D
:0A05AC00000E82B6010E006E120070
:0A05B600000E81B4010E006E120069
:0A05C000000E86B4010E006E12005A
:0A05CA00000E86B2010E006E120052
:1005D40057C0D6F158C0D7F159C0D8F15AC0D9F193
:1005E400668266A21FD05750581059105A1019E04D
:1005F4000101D651D711D811D9110CE163C0E1FF23
:1006040064C0E2FF060EE66E61C000F062C001F055
:100614000EDE08D0010E0101D65F000ED75BD85B59
:06062400D95BDFD71200D4
:04062A0066841200D0
:10062E002FC0D8F130C0D9F131C0DAF132C0DBF1D0
:10063E000101D66BD76BD751120802E1D6518E0845
:10064E0008E309DE005201E004D00101D64BD72B9E
:10065E00F2D70101120ED75D02E18F0ED65D03E3D4
:10066E007B0E006E24D0C580C5A020D02F50301038
:10067E00311032101AE0D851D911DA11DB110EE116
:10068E005DC0E1FF5EC0E2FF050EE66E5BC000F0EE
:10069E005CC001F0C7DD010E006E09D0010E010134
:1006AE00D85F000ED95BDA5BDB5BDED7006A120027
:0406BE00C5841200DD
:1006C20057C0D8F158C0D9F159C0DAF15AC0DBF19C
:1006D200A19A6686A1BA1FD05750581059105A10C5
:1006E20019E00101D851D911DA11DB110CE163C013
:1006F200E1FF64C0E2FF030EE66E61C000F062C07B
:1007020001F096DD08D0010E0101D85F000ED95B21
:10071200DA5BDB5BDFD701016ACFD7F1D651000A82
:1007220002E1668A01D0669AA19A668857C0D8F11A
:1007320058C0D9F159C0DAF15AC0DBF1A1BA1FD0C1
:100742005750581059105A1019E00101D851D911B7
:10075200DA11DB110CE163C0E1FF64C0E2FF030EBA
:10076200E66E61C000F062C001F062DD08D0010EE9
:100772000101D85F000ED95BDA5BDB5BDFD7D7C143
:0407820000F0120071
:10078600A19AD6C16AFF57C0D7F158C0D8F159C04F
:10079600D9F15AC0DAF168A421D05750581059102F
:1007A6005A101BE00101D751D811D911DA110EE107
:1007B60063C0E1FF64C0E2FF040EE66E61C000F0B4
:1007C60062C001F033DD010E006E3AD0010E010168
:1007D600D75F000ED85BD95BDA5BDDD757C0D7F1A0
:1007E60058C0D8F159C0D9F15AC0DAF1A1BA21D00E
:1007F6005750581059105A101BE00101D751D81103
:10080600D911DA110EE163C0E1FF64C0E2FF040E04
:10081600E66E61C000F062C001F008DD010E006EF8
:100826000FD0010E0101D75F000ED85BD95BDA5BF2
:10083600DDD766BC02D0006A03D06684020E006E65
:0208460012009E
:100848002FC0D6F130C0D7F131C0D8F132C0D9F1BC
:10085800C582C5A21FD02F5030103110321019E0B8
:100868000101D651D711D811D9110CE15DC0E1FFB2
:100878005EC0E2FF060EE66E5BC000F05CC001F0F1
:10088800D4DC08D0010E0101D65F000ED75BD85B1F
:06089800D95BDFD712005E
:0A089E00000E86B0010E006E12007D
:0A08A800000E82B6010E006E120071
:0A08B200000E82B8010E006E120065
:0A08BC00000E82BC010E006E120057
:0A08C600000E81B2010E006E120058
:0A08D000000E82BE010E006E120041
:0A08DA00000E80B4010E006E120043
:0A08E400000E82B6010E006E120035
:0A08EE00000E82B8010E006E120029
:0A08F800000E82BA010E006E12001D
:0A090200000E84B4010E006E120016
:0A090C00000E84B6010E006E12000A
:10091600086A096A100E0C6E01340836093604504E
:10092600085E0550D8A0053C095ED8B007D0045033
:1009360008260550D8B0053C0926D8900036013661
:060946000C2EEAD712009E
:10094C000101D46BD56BCDC1D2F1CEC1D3F1CCC1E9
:10095C0000F000360090008079C1E1FF7AC1E2FF1F
:10096C0000C0E6FF77C100F078C101F05CDC0050FC
:10097C000101D413000ED513010ECF5F000ED05B16
:10098C00CF51D01115E089C1E1FF8AC1E2FF010E00
:10099C00E66E87C100F088C101F045DCD2C1E1FFF1
:1009AC00D3C1E2FF00C0E6FF0101D24BD32BE4D749
:1009BC0089C1E1FF8AC1E2FFE66A87C100F088C104
:1009CC0001F031DCD2C1E1FFD3C1E2FF00C0E6FF90
:1009DC000101D151000A05E18BC100F08CC101F07D
:1009EC0022DC0101D151010A05E173C100F074C18F
:0E09FC0001F019DCD4C100F0D5C101F01200E9
:100A0A000101CC6BCD6B8FC100F090C101F00CDC01
:100A1A0000C0CCF1000E0101CD6FCCC100F0CDC1F8
:040A2A0001F01200C5
:100A2E00520E0B6E2B0E0C6E000E0D6E0D2EFED793
:0C0A3E000C2EFCD70B2EFAD70000120083
:100A4A00090E0B6E1E0E0C6EE40E0D6E0D2EFED7E9
:0C0A5A000C2EFCD70B2EFAD70000120067
:100A6600640E0101A76F020EA86F000EA96F000E9B
:100A7600AA6F2E0E976F060E986F000E996F000ED6
:100A86009A6F480E936F080E946F000E956F000EC6
:100A9600966F260E9B6F040E9C6FD60E9D6F010EF1
:100AA6009E6FEA0EA36F040EA46FD60EA56F010EFD
:100AB600A66FBE0E9F6F060EA06F000EA16F000EF2
:100AC600A26F949894968B988B9694889486C79EDA
:080AD600C79C380EC66E120029
:100ADE007C0E0101B76F010EB86FDC0EB96F010EFF
:100AEE00BA6F600EB36F030EB46F000EB56F000ECB
:100AFE00B66F900EAB6F030EAC6F000EAD6F000EA7
:100B0E00AE6F860EAF6F030EB06F000EB16F000E9C
:100B1E00B26FAC8A900EAB6E948E949C9EAA03D04C
:080B2E00AECF00F0FBD712006E
:100B36000101D46BD56BCDC1D2F1CEC1D3F1CCC1FD
:100B460000F00036009079C1E1FF7AC1E2FF00C0F3
:100B5600E6FF77C100F078C101F019EC01F0005012
:100B66000101D413000ED513CFC100F0D0C101F09E
:100B7600010ECF5F000ED05B0050011018E079C166
:100B8600E1FF7AC1E2FFD2C1E9FFD3C1EAFFEECFAE
:100B9600E6FF77C100F078C101F019EC01F00050D2
:100BA6000101D413000ED513D24BD32BDDD7D1516F
:100BB600000A06E18BC100F08CC101F019EC01F0CE
:100BC6000101D151010A06E18FC100F090C101F087
:0E0BD60019EC01F0D4C100F0D5C101F01200FD
:100BE4006C0E0101B76F010EB86FDC0EB96F010E08
:100BF400BA6F720EB36F030EB46F000EB56F000EB2
:100C0400B66F7E0EAB6F020EAC6F000EAD6F000EB2
:100C1400AE6F880EAF6F020EB06F000EB16F000E94
:100C2400B26F0F01218B900E226F98849892A4AA20
:0A0C340003D01DCF00F0FBD7120023
:100C3E00C5C1C8F1C6C1C9F1C7C1CAF10BD0A00E5A
:100C4E00C86E0ADF44D0280EC86E06DF40D0040EF0
:100C5E00006E3FD0C8C1F6FFC9C1F7FFCAC1F8FF89
:100C6E000900F5CF01F00900F5CF02F00900F5CF2C
:100C7E0003F00900F5CF04F00450000A08E1035018
:100C8E00010A05E10250860A02E10150A00AD7E0EE
:100C9E00C8C1F6FFC9C1F7FFCAC1F8FF0900F5CFF9
:100CAE0001F00900F5CF02F00900F5CF03F00900BD
:100CBE00F5CF04F00450000A08E10350060A05E1DE
:100CCE0002501A0A02E10150800ABDE0C0D7000EA0
:040CDE00006E120092
:100CE200300E0101C525006E000EC621016E000EF8
:100CF200C721026E1C0E0024F66E000E0120F76E54
:100D0200000E0220F86E0900F5CF7FF10900F5CF41
:100D120080F10900F5CF81F10900F5CF82F1080ECB
:100D2200C525F66E000EC621F76E000EC721F86EBD
:100D32000900F5CF83F10900F5CF84F10900F5CF61
:100D420085F10900F5CF86F1040EC525F66E000E79
:100D5200C621F76E000EC721F86E0900F5CF6FF1BC
:100D62000900F5CF70F10900F5CF71F10900F5CF57
:040D720072F1120008
:100D7600C5C1F6FFC6C1F7FFC7C1F8FF0900F5CF29
:100D86008FF10900F5CF90F10900F5CF91F1090037
:100D9600F5CF92F1040E0101C525F66E000EC621AF
:100DA600F76E000EC721F86E0900F5CF8BF109002A
:100DB600F5CF8CF10900F5CF8DF10900F5CF8EF155
:100DC600080EC525F66E000EC621F76E000EC72169
:100DD600F86E0900F5CF73F10900F5CF74F109003B
:100DE600F5CF75F10900F5CF76F10C0EC525F66E37
:100DF600000EC621F76E000EC721F86E0900F5CF6A
:100E060077F10900F5CF78F10900F5CF79F10900FE
:100E1600F5CF7AF1100EC525F66E000EC621F76ED7
:100E2600000EC721F86E0900F5CF87F10900F5CF4E
:100E360088F10900F5CF89F10900F5CF8AF1120092
:100E460021D0CF0EAF6EAC9447DE6BD0670EAF6E7F
:100E5600AC9442DE66D0CF0EAF6EAC843DDE61D080
:100E6600670EAF6EAC8438DE5CD0440EAF6EAC84D9
:100E760033DE57D0220EAF6EAC842EDE52D0060E75
:100E8600006E58D00101000E006EC81908E100502E
:100E9600C71905E1120EC61902E1C551C00AD1E013
:100EA600000E006EC81908E10050C71905E1250EAD
:100EB600C61902E1C551800AC9E0000E006EC819C4
:100EC60008E10050C71905E14B0EC61902E1C551EC
:100ED600000AC1E0000E006EC81908E10050C719EB
:100EE60005E1960EC61902E1C551000AB9E0000EE9
:100EF600006EC81908E10050C71905E1E10EC619D0
:100F060002E1C551000AB1E0C851000A08E1C75123
:100F1600010A05E1C651C20A02E1C551000AAAE06A
:100F2600AED77C0E7B6F010E7C6FDC0E7D6F010EE3
:060F36007E6F006A12004C
:100F3C0038D00F0120870D0E1F6F040E1E6F2185F8
:100F4C004BDE7ED00F012087060E1F6F820E1E6FA8
:100F5C00218542DE75D00F012087030E1F6F400ED6
:100F6C001E6F218539DE6CD00F012087010E1F6F9B
:100F7C00A00E1E6F218530DE63D00F012087010E7D
:100F8C001F6F150E1E6F218527DE5AD00F0120878B
:100F9C001F6B8A0E1E6F21851FDE52D0060E006E4F
:100FAC0059D0000E006E0101C81908E10050C71994
:100FBC0005E1120EC61902E1C551C00ABAE0000ED5
:100FCC00006EC81908E10050C71905E1250EC619B5
:100FDC0002E1C551800AB6E0000E006EC81908E1A6
:100FEC000050C71905E14B0EC61902E1C551000AA4
:100FFC00B2E0000E006EC81908E10050C71905E1F7
:10100C00960EC61902E1C551000AAEE0000E006E44
:10101C00C81908E10050C71905E1E10EC61902E133
:10102C00C551000AAAE0C851000A08E1C751010ADB
:10103C0005E1C651C20A02E1C551000AA7E0AED7CC
:10104C0001016C0E7B6F010E7C6FDC0E7D6F010E4F
:06105C007E6F006A120025
:10106200C5C1C8F1C6C1C9F1C7C1CAF10BD0A00E32
:10107200C86EF8DC44D0280EC86EF4DC40D0040EF2
:10108200006E3FD0C8C1F6FFC9C1F7FFCAC1F8FF61
:101092000900F5CF01F00900F5CF02F00900F5CF04
:1010A20003F00900F5CF04F00450000A08E10350F0
:1010B200010A05E10250860A02E10150A00AD7E0C6
:1010C200C8C1F6FFC9C1F7FFCAC1F8FF0900F5CFD1
:1010D20001F00900F5CF02F00900F5CF03F0090095
:1010E200F5CF04F00450000A08E10350060A05E1B6
:1010F20002501A0A02E10150800ABDE0C0D7000E78
:04110200006E120069
:1011060021D0CF0EAF6EAC94E7DC6BD0670EAF6E1E
:10111600AC94E2DC66D0CF0EAF6EAC84DDDC61D081
:10112600670EAF6EAC84D8DC5CD0440EAF6EAC8478
:10113600D3DC57D0220EAF6EAC84CEDC52D0060E76
:10114600006E58D00101000E006EC81908E100506B
:10115600C71905E1120EC61902E1C551C00AD1E050
:10116600000E006EC81908E10050C71905E1250EEA
:10117600C61902E1C551800AC9E0000E006EC81901
:1011860008E10050C71905E14B0EC61902E1C55129
:10119600000AC1E0000E006EC81908E10050C71928
:1011A60005E1960EC61902E1C551000AB9E0000E26
:1011B600006EC81908E10050C71905E1E10EC6190D
:1011C60002E1C551000AB1E0C851000A08E1C75161
:1011D600010A05E1C651C20A02E1C551000AAAE0A8
:1011E600AED77C0E7B6F010E7C6FDC0E7D6F010E21
:0611F6007E6F006A12008A
:1011FC0021D0CF0EAF6EAC946CDC6BD0670EAF6EA3
:10120C00AC9467DC66D0CF0EAF6EAC8462DC61D080
:10121C00670EAF6EAC845DDC5CD0440EAF6EAC84FC
:10122C0058DC57D0220EAF6EAC8453DC52D0060E75
:10123C00006E58D00101000E006EC81908E1005074
:10124C00C71905E1120EC61902E1C551C00AD1E059
:10125C00000E006EC81908E10050C71905E1250EF3
:10126C00C61902E1C551800AC9E0000E006EC8190A
:10127C0008E10050C71905E14B0EC61902E1C55132
:10128C00000AC1E0000E006EC81908E10050C71931
:10129C0005E1960EC61902E1C551000AB9E0000E2F
:1012AC00006EC81908E10050C71905E1E10EC61916
:1012BC0002E1C551000AB1E0C851000A08E1C7516A
:1012CC00010A05E1C651C20A02E1C551000AAAE0B1
:1012DC00AED77C0E7B6F010E7C6FDC0E7D6F010E2A
:0612EC007E6F006A120093
:1012F200C5C1C8F1C6C1C9F1C7C1CAF10DD0A00E9E
:10130200C86E33EC05F045D0280EC86E33EC05F0FC
:1013120040D0040E006E3FD0C8C1F6FFC9C1F7FF2E
:10132200CAC1F8FF0900F5CF01F00900F5CF02F0BC
:101332000900F5CF03F00900F5CF04F00450000ACC
:1013420008E10350010A05E10250860A02E1015058
:10135200A00AD5E0C8C1F6FFC9C1F7FFCAC1F8FFAC
:101362000900F5CF01F00900F5CF02F00900F5CF31
:1013720003F00900F5CF04F00450000A08E103501D
:10138200060A05E102501A0A02E10150800ABCE095
:08139200C0D7000E006E12002E
:10139A0057D00101C6B102D0929401D0928476D07E
:1013AA000101C6B102D0969601D096866FD001018E
:1013BA00C6B102D0969401D0968468D00101C6B114
:1013CA0002D0949601D0948661D00101C6B102D0B0
:1013DA00949801D094885AD00101C6B102D0949A47
:1013EA0001D0948A53D00101C6B102D0989001D09D
:1013FA0098804CD00101C6B102D0939401D0938455
:10140A0045D00101C6B102D0989401D098843ED04B
:10141A000101C6B102D0989201D0988237D0010159
:10142A00C6B102D0949601D0948630D00101C6B1DB
:10143A0002D0949801D0948829D0010E006E28D049
:10144A000101C551000AA5E0C551010AA9E0C5512B
:10145A00020AADE0C551030AB1E0C551040AB5E07C
:10146A00C551050AB9E0C551060ABDE0C551070ACA
:10147A00C1E0C551080AC5E0C551090AC9E0C5510C
:10148A000A0ACDE0C5510B0AD1E0D7D7000E006E8B
:02149A0012003E
:10149C000101C56B05EC05F05FC0CCF1C50ECD6F3D
:1014AC00010ECE6F010ECF6F000ED06F010ED16FFB
:1014BC009BEC05F05FC0CCF1C60E0101CD6F010EA7
:1014CC00CE6F010ECF6F000ED06FD16BA6EC04F077
:0A14DC0025EC05F0C6C100F0120077
:1014E60057D00101C6B102D0929201D0928276D035
:1014F6000101C6B102D0929801D092886FD0010145
:10150600C6B102D0969201D0968268D00101C6B1CA
:1015160002D0949601D0948661D00101C6B102D062
:10152600949801D094885AD00101C6B102D0949AF9
:1015360001D0948A53D00101C6B102D0949401D04F
:1015460094844CD00101C6B102D0939201D093820B
:1015560045D00101C6B102D0949E01D0948E3ED0F2
:101566000101C6B102D0949C01D0948C37D0010100
:10157600C6B102D0949601D0948630D00101C6B18E
:1015860002D0949801D0948829D0010E006E28D0FC
:101596000101C551000AA5E0C551010AA9E0C551DE
:1015A600020AADE0C551030AB1E0C551040AB5E02F
:1015B600C551050AB9E0C551060ABDE0C551070A7D
:1015C600C1E0C551080AC5E0C551090AC9E0C551BF
:1015D6000A0ACDE0C5510B0AD1E0D7D7000E006E3E
:0215E6001200F1
:1015E80057D00101C6B102D0929001D0928076D036
:1015F8000101C6B102D0949001D094806FD001014E
:10160800C6B102D0969001D0968068D00101C6B1CB
:1016180002D0949601D0948661D00101C6B102D05F
:10162800949801D094885AD00101C6B102D0949AF6
:1016380001D0948A53D00101C6B102D0949201D04E
:1016480094824CD00101C6B102D0939001D093800E
:1016580045D00101C6B102D0949E01D0948E3ED0EF
:101668000101C6B102D0949C01D0948C37D00101FD
:10167800C6B102D0949601D0948630D00101C6B18B
:1016880002D0949801D0948829D0010E006E28D0F9
:101698000101C551000AA5E0C551010AA9E0C551DB
:1016A800020AADE0C551030AB1E0C551040AB5E02C
:1016B800C551050AB9E0C551060ABDE0C551070A7A
:1016C800C1E0C551080AC5E0C551090AC9E0C551BC
:1016D8000A0ACDE0C5510B0AD1E0D7D7000E006E3B
:0216E8001200EE
:1016EA007DC1E1FF7EC1E2FFC5C1E9FFC6C1EAFFD4
:1016FA00EECFE6FF7BC100F07CC101F019EC01F0EE
:04170A00006A12005F
:10170E0071C1E1FF72C1E2FFE66A6FC100F070C104
:10171E0001F019EC01F017EC05F017EC05F071C1B2
:10172E00E1FF72C1E2FF010EE66E6FC100F070C103
:10173E0001F019EC01F025EC05F025EC05F0120096
:10174E0085C1E1FF86C1E2FFE66A83C100F084C174
:08175E0001F019EC01F012008A
:10176600C5C1C6F105EC05F05FC0CCF1C60ECD6F64
:10177600010ECE6F010ECF6F000ED06FD16B9BECBA
:0817860005F025EC05F012004E
:10178E000101C96B050EC95D0AE2C951C725E16E9B
:10179E00000EC821E26E200EE66EC92BF3D7C9519A
:1017AE00C725E16E000EC821E26EE66AC907C9516F
:1017BE00C725CA6F000EC821CB6F0A0E046E000E2D
:1017CE00056EC5C100F0C6C101F08BEC04F008C077
:1017DE0000F009C001F0300E0026CAC1E1FFCBC1F6
:1017EE00E2FF00C0E6FF0A0E046E000E056EC5C1D4
:1017FE0000F0C6C101F08BEC04F000C0C5F101C0D1
:10180E00C6F1000E011802E1000E001801E102D02F
:06181E00C907CDD712003E
:1018240015D0BCC1C5F1BDC1C6F1DCDE1AD0BCC146
:10183400C5F1BDC1C6F155DE14D0BCC1C5F1BDC1F1
:10184400C6F1A9DD0ED0010E006E0BD00101BB5113
:10185400000AE7E0BB51010AEAE0BB51020AEDE0ED
:04186400F2D71200A5
:101868001DD0BCC1C5F1BDC1C6F1BEC1C7F13DDDCA
:1018780020D0BCC1C5F1BDC1C6F1BEC1C7F131ECB4
:1018880008F017D0BCC1C5F1BDC1C6F1BEC1C7F1D2
:101898001FEC06F00ED0010E006E0BD00101BB51FB
:1018A800000ADFE0BB51010AE4E0BB51020AEAE0AA
:0418B800F2D7120051
:1018BC00020E0001606FECDD00A6DBD005EC05F03C
:1018CC005FC0CCF1600ECD6F000ECE6F010ECF6FEE
:1018DC00000ED06F010ED16F9BEC05F05FC0CCF108
:1018EC00BD0E0101CD6F010ECE6F080ECF6F000E35
:1018FC00D06FD16BA6EC04F025EC05F0BBC1E1FF79
:10190C00BCC1E2FFBDC1E6FF000EE66EBBC1E9FF44
:10191C00BCC1EAFFEECF03F0EECF04F003C001F040
:10192C00006ABBC1E1FFBCC1E2FF00C0E6FF01C021
:10193C00E6FFBBC1E9FFBCC1EAFF0101BE51EE10DD
:10194C00006EEECF01F0000E0112BBC1E1FFBCC175
:10195C00E2FF00C0E6FF01C0E6FF020EBB25E16E10
:10196C00000EBC21E26EBFC1E6FF000EE66E020E59
:10197C00BB25056E000EBC21066E05C0E9FF06C036
:10198C00EAFFEECF03F0EECF04F003C001F0006AE3
:10199C0005C0E1FF06C0E2FF00C0E6FF01C0E6FFA4
:1019AC00020EBB25026E000EBC21036E02C0E9FFC5
:1019BC0003C0EAFFC051EE10006EEECF01F0000E36
:1019CC00011202C0E1FF03C0E2FF00C0E6FF01C04C
:1019DC00E6FF040EBB25E16E000EBC21E26EC1C118
:1019EC00E6FF000EE66E060EBB25E16E000EBC2176
:1019FC00E26EC2C1E6FF000EE66E080EBB25E16E7C
:101A0C00000EBC21E26EC3C1E6FF000EE66E080EAE
:101A1C00BB25056E000EBC21066E05C0E9FF06C095
:101A2C00EAFFEECF03F0EECF04F003C001F0006A42
:101A3C0005C0E1FF06C0E2FF00C0E6FF01C0E6FF03
:101A4C00080EBB25026E000EBC21036E02C0E9FF1E
:101A5C0003C0EAFFC451EE10006EEECF01F0000E91
:101A6C00011202C0E1FF03C0E2FF00C0E6FF01C0AB
:041A7C00E6FF12006F
:101A80000101C16BC26BBBC1C3F1BCC1C4F1800E0B
:101A9000BC19006E800E005C02E1000EBB5D0BE223
:101AA000010EC16F000EC26FBB510008C36FBCC1F5
:101AB000C4F1000EC457C3C1C5F1C4C1C6F1BDC154
:101AC000C7F1BEC1C8F163DE060EBF6F000EC06F66
:101AD000000E006EC051005C02E1BF51000819E227
:101AE000BF51BD25E16EC051BE21E26E010EBF5D4A
:101AF000006E000EC059016E0050BD25E96E015008
:101B0000BE21EA6EEECFE6FF010EBF5F000EC05BA6
:101B1000DFD7BDC1E1FFBEC1E2FF200EE66EC151BD
:101B2000C2111AE0BF6BC06BBF51BD25E96EC05139
:101B3000BE21EA6EEE50200A03E1BF4BC02BF4D762
:101B4000010EBF5F000EC05BBF51BD25E16EC051ED
:0A1B5000BE21E26E2D0EE66E1200BB
:101B5A00010E0101BB6F60C0BCF105EC05F05FC06E
:101B6A00CCF1BB0ECD6F010ECE6F020ECF6F000E01
:0E1B7A00D06FD16B9BEC05F025EC05F012004E
:101B8800BBC1BEF1BCC1BFF10D0E0001606F0A0EF2
:101B98000101C06F35D0BEC1C5F1BFC1C6F1A1DD1D
:101BA8003AD0BEC1E9FFBFC1EAFFEE5209E0BEC1AB
:101BB800C5F1BFC1C6F195DD0101BE4BBF2BF1D701
:101BC8002AD0BEC1E9FFBFC1EAFFEE5209E0BEC19B
:101BD800C5F1BFC1C6F185DD0101BE4BBF2BF1D7F1
:101BE8000101600EC56F000EC66F7BDDC00E0101DE
:101BF800C56F010EC66F75DD0ED0060E006E0CD0D7
:101C08000101BD51000AC7E0BD51010ACAE0BD513A
:0A1C1800020AD7E0F2D7006A1200BA
:101C22002FD0BCC1C5F1BDC1C6F1BEC1C7F1BFC194
:101C3200C8F123EC07F032D0BCC1C5F1BDC1C6F179
:101C4200BEC1C7F1BFC1C8F1FEEC08F027D0BCC1CC
:101C5200C5F1BDC1C6F1BEC1C7F1BFC1C8F19EEC9D
:101C620007F01CD0BCC1C5F1BDC1C6F1BEC1C7F1F0
:101C7200BFC1C8F183EC08F011D0010E006E0ED086
:101C82000101BB51000ACDE0BB51010AD5E0BB51B5
:0E1C9200020ADDE0BB51100AE5E0EFD71200B8
:101CA000C1C15FF0BEC1C5F1BFC1C6F1C0C1C7F1BE
:101CB000BBEC06F0BBC1C5F1BCC1C6F1BDC1C7F1EB
:061CC00071EC06F01200B9
:0E1CC60043DD22DDF40E0101C56F4ADD120080
:101CD4000900F5CFE6FF0006FBE10106F9E1120079
:101CE4000101BB6B020EBC6FBD6B9ADD0101BB6BC6
:101CF400010EBC6FBD6B94DD0101BB6B070EBC6FA5
:101D0400010EBD6F8DDD0101BB6B0A0EBC6F1F0E92
:101D1400BD6F000EBE6FA6DD100E0101BB6F800EFD
:101D2400BC6F250EBD6F000EBE6FBF6F78DF090E4E
:101D34000B6E1E0E0C6EE40E0D6E0D2EFED70C2EC9
:0A1D4400FCD70B2EFAD700001200A6
:101D4E00500E0101BB6F1E0EBC6F000EBD6FF60E66
:101D5E00BE6F1E0EBF6F000EC06F5A0EC16F99DFA1
:101D6E00ABDF400E006E080E00100001606FEEDE5D
:101D7E00330E0101BB6F000EBC6F020EBD6FFDDE98
:101D8E00F40E0B6E820E0C6E050E0D6E0D2EFED722
:0A1D9E000C2EFCD70B2EFAD7120012
:101DA800650E0101BB6F000EBC6F84DD65C0BBF121
:101DB80066C0BCF16F0E0101BD6F000EBE6F5CDE28
:101DC8004A0EBB6F000EBC6F010EBD6FD9DE6F0EE1
:101DD8000101BB6F000EBC6F010EBD6FD1DE230E7B
:101DE8000101BB6F000EBC6F020EBD6FC9DE25EC92
:101DF80005F067C0BBF168C0BCF16F0E0101BD6F93
:101E0800000EBE6F39DE150EBB6F000EBC6F010EE3
:101E1800BD6FB6DE6F0E0101BB6F000EBC6F010E09
:101E2800BD6FAEDE290E0101BB6F000EBC6F020E46
:0A1E3800BD6FA6DE17EC05F01200E6
:0E1E420087EC0FF04EDF82DFAEDFFED7FFD75A
:101F0E0010EE15F0460E006E010E016EB00EF66E5E
:0E1F1E001E0EF76E000EF86E6AEC0EF012004A
:101E50009801DC018A01DC015E01DC013401DC0156
:101E60002601DC015001DC014201DC01A601DC019C
:101E70000802DC01FA01DC012402DC011602DC01AB
:101E800094020000B2020000A80200009E020000BE
:101E9000F4030000EA030000E00300001204000065
:101EA00008040000FE030000D6030000AE0300009B
:0E1EB00054564F432076616C7565203A200031
:061EBE00202070706D0091
:061EC40020207070620096
:041ECA000000000014
:101ECE002D2D2D2D2D2D2D496E697420646F6E656F
:071EDE002D2D2D2D2D2D00EF
:0D1EE500434F322076616C7565203A200075
:041EF20000000000EC
:101EF6002E060000BE06000048080000EA04D601CF
:041F06002604D601D6
:041F0A00A0860100AC
:020000040030CA
:0E00000015137F7CF98B91FFFFC0FFE0FF40DE
:00000001FF
